{
  "transactions": [
    {
      "hash": "0xa75a81dceb40934a86a190f02dab5d1a52b85a3dc42ea1c503e3e9dba84fce8e",
      "transactionType": "CALL",
      "contractName": null,
      "contractAddress": "0x5fbe74a283f7954f10aa04c2edf55578811aeb03",
      "function": "send(uint32,uint64,uint64,bytes32,(uint8,uint8,bytes))",
      "arguments": [
        "6",
        "0",
        "1756246560000000000",
        "0x214dbcd1abd9a2aa6ebbd72e2025244da90738d255945df229074fb11ced227c",
        "(2, 3, 0x0000000000000000000000000000000000000000000000000000000000000100000000000000000000000000000000000000000000000000000000000000014000000000000000000000000000000000000000000000000000000000000001800000000000000000000000000000000000000000000000000214e8348c4f000000000000000000000000000000000000000000000000000000000000000001c00000000000000000000000000000000000000000000000000214e8348c4f00000000000000000000000000000000000000000000000000000000000000000003000000000000000000000000000000000000000000000000000000000000020000000000000000000000000000000000000000000000000000000000000000141285a2214319eff512c5035933ac44e57373877200000000000000000000000000000000000000000000000000000000000000000000000000000000000000141285a2214319eff512c5035933ac44e5737387720000000000000000000000000000000000000000000000000000000000000000000000000000000000000014eeeeeee98622c19ea39ea8827ae22bbfc732671c0000000000000000000000000000000000000000000000000000000000000000000000000000000000000014eeeeeee98622c19ea39ea8827ae22bbfc732671c00000000000000000000000000000000000000000000000000000000000000000000000000000000000000a0000000000000000000000000000000000000000000000000000000000000004000000000000000000000000000000000000000000000000000000000000000800000000000000000000000000000000000000000000000000000000000000014eeeeeee98622c19ea39ea8827ae22bbfc732671c0000000000000000000000000000000000000000000000000000000000000000000000000000000000000000)"
      ],
      "transaction": {
        "from": "0x1285a2214319eff512c5035933ac44e573738772",
        "to": "0x5fbe74a283f7954f10aa04c2edf55578811aeb03",
        "gas": "0x34569",
        "value": "0x0",
        "input": "0xff0d7c2f00000000000000000000000000000000000000000000000000000000000000060000000000000000000000000000000000000000000000000000000000000000000000000000000000000000000000000000000000000000185f70f0facd4000214dbcd1abd9a2aa6ebbd72e2025244da90738d255945df229074fb11ced227c00000000000000000000000000000000000000000000000000000000000000a000000000000000000000000000000000000000000000000000000000000000020000000000000000000000000000000000000000000000000000000000000003000000000000000000000000000000000000000000000000000000000000006000000000000000000000000000000000000000000000000000000000000002c00000000000000000000000000000000000000000000000000000000000000100000000000000000000000000000000000000000000000000000000000000014000000000000000000000000000000000000000000000000000000000000001800000000000000000000000000000000000000000000000000214e8348c4f000000000000000000000000000000000000000000000000000000000000000001c00000000000000000000000000000000000000000000000000214e8348c4f00000000000000000000000000000000000000000000000000000000000000000003000000000000000000000000000000000000000000000000000000000000020000000000000000000000000000000000000000000000000000000000000000141285a2214319eff512c5035933ac44e57373877200000000000000000000000000000000000000000000000000000000000000000000000000000000000000141285a2214319eff512c5035933ac44e5737387720000000000000000000000000000000000000000000000000000000000000000000000000000000000000014eeeeeee98622c19ea39ea8827ae22bbfc732671c0000000000000000000000000000000000000000000000000000000000000000000000000000000000000014eeeeeee98622c19ea39ea8827ae22bbfc732671c00000000000000000000000000000000000000000000000000000000000000000000000000000000000000a0000000000000000000000000000000000000000000000000000000000000004000000000000000000000000000000000000000000000000000000000000000800000000000000000000000000000000000000000000000000000000000000014eeeeeee98622c19ea39ea8827ae22bbfc732671c0000000000000000000000000000000000000000000000000000000000000000000000000000000000000000",
        "nonce": "0x30",
        "chainId": "0xaa36a7"
      },
      "additionalContracts": [],
      "isFixedGasLimit": false
    }
  ],
  "receipts": [
    {
      "status": "0x1",
      "cumulativeGasUsed": "0x7ed5e7",
      "logs": [
        {
          "address": "0xeeeeeee98622c19ea39ea8827ae22bbfc732671c",
          "topics": [
            "0xddf252ad1be2c89b69c2b068fc378daa952ba7f163c4a11628f55a4df523b3ef",
            "0x0000000000000000000000001285a2214319eff512c5035933ac44e573738772",
            "0x0000000000000000000000005fbe74a283f7954f10aa04c2edf55578811aeb03"
          ],
          "data": "0x0000000000000000000000000000000000000000000000000214e8348c4f0000",
          "blockHash": "0xffbd12da7a5a2cae7c030447c40952a36c45e429a984ccc327489c5d694ec10a",
          "blockNumber": "0x8a15c0",
          "transactionHash": "0xa75a81dceb40934a86a190f02dab5d1a52b85a3dc42ea1c503e3e9dba84fce8e",
          "transactionIndex": "0x65",
          "logIndex": "0x8f",
          "removed": false
        },
        {
          "address": "0xee4ea8d358473f0fcebf0329feed95d56e8c04d7",
          "topics": [
            "0x635b5d234fe7abddfb29b6c8498780a3175c9002c537f20a3d1bf9d0e625b5fe",
            "0x0000000000000000000000000000000000000000000000000000000000000006",
            "0x09bc423f32b22efeeed12d7658ec804fb8d8850be63d92ff667f719f84e46cf6"
          ],
          "data": "0x00000000000000000000000000000000000000000000000000000000000000200000000000000000000000000000000000000000000000000000000000000006000000000000000000000000000000000000000000000000000000000000000100000000000000000000000000000000000000000000000000000000000000a00000000000000000000000000000000000000000000000000000000000000000000000000000000000000000000000000000000000000000185f70f0facd400000000000000000000000000000000000000000000000000000000000000003a02bb6f29fe70ed1d43f067db8b686ea53cabfa9e0872ed00507a5f1c9eb23fd400000000000000000000000000000000000000000000000000000000000000000000000000000000000000000000000000000000000000000000000000000006000000000000000000000000000000000000000000000000000000000000000020000000000000000000000000000000000000000000000000000000000000003000000000000000000000000000000000000000000000000000000000000006000000000000000000000000000000000000000000000000000000000000002c00000000000000000000000000000000000000000000000000000000000000100000000000000000000000000000000000000000000000000000000000000014000000000000000000000000000000000000000000000000000000000000001800000000000000000000000000000000000000000000000000214e8348c4f000000000000000000000000000000000000000000000000000000000000000001c00000000000000000000000000000000000000000000000000214e8348c4f00000000000000000000000000000000000000000000000000000000000000000003000000000000000000000000000000000000000000000000000000000000020000000000000000000000000000000000000000000000000000000000000000141285a2214319eff512c5035933ac44e57373877200000000000000000000000000000000000000000000000000000000000000000000000000000000000000141285a2214319eff512c5035933ac44e5737387720000000000000000000000000000000000000000000000000000000000000000000000000000000000000014eeeeeee98622c19ea39ea8827ae22bbfc732671c0000000000000000000000000000000000000000000000000000000000000000000000000000000000000014eeeeeee98622c19ea39ea8827ae22bbfc732671c00000000000000000000000000000000000000000000000000000000000000000000000000000000000000a0000000000000000000000000000000000000000000000000000000000000004000000000000000000000000000000000000000000000000000000000000000800000000000000000000000000000000000000000000000000000000000000014eeeeeee98622c19ea39ea8827ae22bbfc732671c0000000000000000000000000000000000000000000000000000000000000000000000000000000000000000",
          "blockHash": "0xffbd12da7a5a2cae7c030447c40952a36c45e429a984ccc327489c5d694ec10a",
          "blockNumber": "0x8a15c0",
          "transactionHash": "0xa75a81dceb40934a86a190f02dab5d1a52b85a3dc42ea1c503e3e9dba84fce8e",
          "transactionIndex": "0x65",
          "logIndex": "0x90",
          "removed": false
        }
      ],
      "logsBloom": "0x00004080000000000000000000008004000000000000000000000000000000000000000000000000000000000000000000000000000400000000000200000000000000000020000000000008000000000100000000000000000000000000000000000000000000000000000000000000000000000000020000000010000000400000000400010000000000000000000000000000000000000000000000000000000000000000000000000000000000000008000000000000200000080000000000000002000000000000000000008000000400000000008000000000000000000000000000000000000000000000000020000000000000000000000000800000",
      "type": "0x2",
      "transactionHash": "0xa75a81dceb40934a86a190f02dab5d1a52b85a3dc42ea1c503e3e9dba84fce8e",
      "transactionIndex": "0x65",
      "blockHash": "0xffbd12da7a5a2cae7c030447c40952a36c45e429a984ccc327489c5d694ec10a",
      "blockNumber": "0x8a15c0",
      "gasUsed": "0x25e46",
      "effectiveGasPrice": "0x56879e3",
      "from": "0x1285a2214319eff512c5035933ac44e573738772",
      "to": "0x5fbe74a283f7954f10aa04c2edf55578811aeb03",
      "contractAddress": null
    }
  ],
  "libraries": [],
  "pending": [],
  "returns": {},
  "timestamp": 1755987386,
  "chain": 11155111,
  "commit": "07cb2ae"
}