{
  "transactions": [
    {
      "hash": "0x9647dbb580132e52773d2eb189327c7efc4885b715abbd03c1182eceacaf02d0",
      "transactionType": "CALL",
      "contractName": null,
      "contractAddress": "0xeeeeeee98622c19ea39ea8827ae22bbfc732671c",
      "function": "approve(address,uint256)",
      "arguments": [
        "0x5FbE74A283f7954f10AA04C2eDf55578811aeb03",
        "150000000000000000"
      ],
      "transaction": {
        "from": "0x1285a2214319eff512c5035933ac44e573738772",
        "to": "0xeeeeeee98622c19ea39ea8827ae22bbfc732671c",
        "gas": "0x122a4",
        "value": "0x0",
        "input": "0x095ea7b30000000000000000000000005fbe74a283f7954f10aa04c2edf55578811aeb030000000000000000000000000000000000000000000000000214e8348c4f0000",
        "nonce": "0x2f",
        "chainId": "0xaa36a7"
      },
      "additionalContracts": [],
      "isFixedGasLimit": false
    },
    {
      "hash": null,
      "transactionType": "CALL",
      "contractName": null,
      "contractAddress": "0x5fbe74a283f7954f10aa04c2edf55578811aeb03",
      "function": "send(uint32,uint64,uint64,bytes32,(uint8,uint8,bytes))",
      "arguments": [
        "6",
        "0",
        "1756246536000000000",
        "0x1ad5c1ba11c31b4c042bd328fab47f0aad12869b79e098ec4de52e9469c803d6",
        "(2, 3, 0x0000000000000000000000000000000000000000000000000000000000000100000000000000000000000000000000000000000000000000000000000000014000000000000000000000000000000000000000000000000000000000000001800000000000000000000000000000000000000000000000000214e8348c4f000000000000000000000000000000000000000000000000000000000000000001c00000000000000000000000000000000000000000000000000214e8348c4f00000000000000000000000000000000000000000000000000000000000000000003000000000000000000000000000000000000000000000000000000000000020000000000000000000000000000000000000000000000000000000000000000141285a2214319eff512c5035933ac44e57373877200000000000000000000000000000000000000000000000000000000000000000000000000000000000000141285a2214319eff512c5035933ac44e5737387720000000000000000000000000000000000000000000000000000000000000000000000000000000000000014eeeeeee98622c19ea39ea8827ae22bbfc732671c0000000000000000000000000000000000000000000000000000000000000000000000000000000000000014eeeeeee98622c19ea39ea8827ae22bbfc732671c00000000000000000000000000000000000000000000000000000000000000000000000000000000000000a0000000000000000000000000000000000000000000000000000000000000004000000000000000000000000000000000000000000000000000000000000000800000000000000000000000000000000000000000000000000000000000000014eeeeeee98622c19ea39ea8827ae22bbfc732671c0000000000000000000000000000000000000000000000000000000000000000000000000000000000000000)"
      ],
      "transaction": {
        "from": "0x1285a2214319eff512c5035933ac44e573738772",
        "to": "0x5fbe74a283f7954f10aa04c2edf55578811aeb03",
        "gas": "0x34569",
        "value": "0x0",
        "input": "0xff0d7c2f00000000000000000000000000000000000000000000000000000000000000060000000000000000000000000000000000000000000000000000000000000000000000000000000000000000000000000000000000000000185f70eb644a50001ad5c1ba11c31b4c042bd328fab47f0aad12869b79e098ec4de52e9469c803d600000000000000000000000000000000000000000000000000000000000000a000000000000000000000000000000000000000000000000000000000000000020000000000000000000000000000000000000000000000000000000000000003000000000000000000000000000000000000000000000000000000000000006000000000000000000000000000000000000000000000000000000000000002c00000000000000000000000000000000000000000000000000000000000000100000000000000000000000000000000000000000000000000000000000000014000000000000000000000000000000000000000000000000000000000000001800000000000000000000000000000000000000000000000000214e8348c4f000000000000000000000000000000000000000000000000000000000000000001c00000000000000000000000000000000000000000000000000214e8348c4f00000000000000000000000000000000000000000000000000000000000000000003000000000000000000000000000000000000000000000000000000000000020000000000000000000000000000000000000000000000000000000000000000141285a2214319eff512c5035933ac44e57373877200000000000000000000000000000000000000000000000000000000000000000000000000000000000000141285a2214319eff512c5035933ac44e5737387720000000000000000000000000000000000000000000000000000000000000000000000000000000000000014eeeeeee98622c19ea39ea8827ae22bbfc732671c0000000000000000000000000000000000000000000000000000000000000000000000000000000000000014eeeeeee98622c19ea39ea8827ae22bbfc732671c00000000000000000000000000000000000000000000000000000000000000000000000000000000000000a0000000000000000000000000000000000000000000000000000000000000004000000000000000000000000000000000000000000000000000000000000000800000000000000000000000000000000000000000000000000000000000000014eeeeeee98622c19ea39ea8827ae22bbfc732671c0000000000000000000000000000000000000000000000000000000000000000000000000000000000000000",
        "nonce": "0x30",
        "chainId": "0xaa36a7"
      },
      "additionalContracts": [],
      "isFixedGasLimit": false
    }
  ],
  "receipts": [],
  "libraries": [],
  "pending": [
    "0x9647dbb580132e52773d2eb189327c7efc4885b715abbd03c1182eceacaf02d0"
  ],
  "returns": {},
  "timestamp": 1755987356,
  "chain": 11155111,
  "commit": "07cb2ae"
}