{
  "transactions": [
    {
      "hash": "0xbe58c1dcfcbe8a10c4925c5f5d5b212f9a5b1193725a625b9044b9a6e803ce0e",
      "transactionType": "CALL",
      "contractName": null,
      "contractAddress": "0xe5fc492b13e67a4bf910c0123487d3be43b7318f",
      "function": "deploy(bytes32,address,bytes)",
      "arguments": [
        "0xefb270990b447a91f0654cf24a7b62899c4656f4c3758218f5c900c8323d4e3c",
        "0x14DF5C804533BB4D8eC24b584a5f9e44bAdB96BD",
        "0x82d9c5ff00000000000000000000000000000000000000000000000000000000000000200000000000000000000000001804c8ab1f12e6bbf3894d4083f33e07309d1f38000000000000000000000000ba5ed44733953d79717f6269357c77718c8ba5ed0000000000000000000000005fbe74a283f7954f10aa04c2edf55578811aeb03000000000000000000000000000000000000000000000000000000000000018000000000000000000000000000000000000000000000000000000000000001e00000000000000000000000000000000000000000000000000000000000000005000000000000000000000000ba5ed44733953d79717f6269357c77718c8ba5ed0000000000000000000000000000000000000000000000000000000000000240000000000000000000000000000000000000000000000000000000000000028000000000000000000000000000000000000000000000000000000000000002c000000000000000000000000015ee7c367f4232241028c36e720803100757c6e900000000000000000000000000000000000000000000000000000000000000000000000000000000000000000000000000000000000000000000000000000040756e696f6e313761756b653066326c3975656a6b3677666b7776686c6170336678647163646c386a6b636d6736636d633533636e717268656b71373932386d300000000000000000000000000000000000000000000000000000000000000040756e696f6e3175757575757575757539756e3271706b73616d37726c747470786338646337366d63706868736d70333970786a6e737672746371767976353772000000000000000000000000000000000000000000000000000000000000000155000000000000000000000000000000000000000000000000000000000000000000000000000000000000000000000000000000000000000000000000000002617500000000000000000000000000000000000000000000000000000000000000000000000000000000000000000000000000000000000000000000000000026175000000000000000000000000000000000000000000000000000000000000"
      ],
      "transaction": {
        "from": "0x1285a2214319eff512c5035933ac44e573738772",
        "to": "0xe5fc492b13e67a4bf910c0123487d3be43b7318f",
        "gas": "0xd0d73",
        "value": "0x0",
        "input": "0x2781212eefb270990b447a91f0654cf24a7b62899c4656f4c3758218f5c900c8323d4e3c00000000000000000000000014df5c804533bb4d8ec24b584a5f9e44badb96bd0000000000000000000000000000000000000000000000000000000000000060000000000000000000000000000000000000000000000000000000000000032482d9c5ff00000000000000000000000000000000000000000000000000000000000000200000000000000000000000001804c8ab1f12e6bbf3894d4083f33e07309d1f38000000000000000000000000ba5ed44733953d79717f6269357c77718c8ba5ed0000000000000000000000005fbe74a283f7954f10aa04c2edf55578811aeb03000000000000000000000000000000000000000000000000000000000000018000000000000000000000000000000000000000000000000000000000000001e00000000000000000000000000000000000000000000000000000000000000005000000000000000000000000ba5ed44733953d79717f6269357c77718c8ba5ed0000000000000000000000000000000000000000000000000000000000000240000000000000000000000000000000000000000000000000000000000000028000000000000000000000000000000000000000000000000000000000000002c000000000000000000000000015ee7c367f4232241028c36e720803100757c6e900000000000000000000000000000000000000000000000000000000000000000000000000000000000000000000000000000000000000000000000000000040756e696f6e313761756b653066326c3975656a6b3677666b7776686c6170336678647163646c386a6b636d6736636d633533636e717268656b71373932386d300000000000000000000000000000000000000000000000000000000000000040756e696f6e3175757575757575757539756e3271706b73616d37726c747470786338646337366d63706868736d70333970786a6e73767274637176797635377200000000000000000000000000000000000000000000000000000000000000015500000000000000000000000000000000000000000000000000000000000000000000000000000000000000000000000000000000000000000000000000000261750000000000000000000000000000000000000000000000000000000000000000000000000000000000000000000000000000000000000000000000000002617500000000000000000000000000000000000000000000000000000000000000000000000000000000000000000000000000000000000000000000",
        "nonce": "0x7",
        "chainId": "0x4268"
      },
      "additionalContracts": [
        {
          "transactionType": "CREATE2",
          "address": "0xc0ffeee9becce55b2b4fe5fc4fc4353b54d3f6fb",
          "initCode": "0x60806040526040516103d33803806103d38339810160408190526100229161023f565b818161002e8282610037565b50505050610324565b61004082610095565b6040516001600160a01b038316907fbc7cd75a20ee27fd9adebab32041f755214dbc6bffa90cc0225b39da2e5c2d3b905f90a2805115610089576100848282610110565b505050565b610091610183565b5050565b806001600160a01b03163b5f036100cf57604051634c9c8ce360e01b81526001600160a01b03821660048201526024015b60405180910390fd5b7f360894a13ba1a3210667c828492db98dca3e2076cc3735a920a3ca505d382bbc80546001600160a01b0319166001600160a01b0392909216919091179055565b60605f5f846001600160a01b03168460405161012c919061030e565b5f60405180830381855af49150503d805f8114610164576040519150601f19603f3d011682016040523d82523d5f602084013e610169565b606091505b50909250905061017a8583836101a4565b95945050505050565b34156101a25760405163b398979f60e01b815260040160405180910390fd5b565b6060826101b9576101b482610203565b6101fc565b81511580156101d057506001600160a01b0384163b155b156101f957604051639996b31560e01b81526001600160a01b03851660048201526024016100c6565b50805b9392505050565b80511561021257805160208201fd5b60405163d6bda27560e01b815260040160405180910390fd5b634e487b7160e01b5f52604160045260245ffd5b5f5f60408385031215610250575f5ffd5b82516001600160a01b0381168114610266575f5ffd5b60208401519092506001600160401b03811115610281575f5ffd5b8301601f81018513610291575f5ffd5b80516001600160401b038111156102aa576102aa61022b565b604051601f8201601f19908116603f011681016001600160401b03811182821017156102d8576102d861022b565b6040528181528282016020018710156102ef575f5ffd5b8160208401602083015e5f602083830101528093505050509250929050565b5f82518060208501845e5f920191825250919050565b60a3806103305f395ff3fe6080604052600a600c565b005b60186014601a565b6050565b565b5f604b7f360894a13ba1a3210667c828492db98dca3e2076cc3735a920a3ca505d382bbc546001600160a01b031690565b905090565b365f5f375f5f365f845af43d5f5f3e8080156069573d5ff35b3d5ffdfea26469706673582212202107e3e57c6c32d710eae0dac697488334bc4cf90ceb5ce92b5f0d87be0861da64736f6c634300081c003300000000000000000000000014df5c804533bb4d8ec24b584a5f9e44badb96bd0000000000000000000000000000000000000000000000000000000000000040000000000000000000000000000000000000000000000000000000000000032482d9c5ff00000000000000000000000000000000000000000000000000000000000000200000000000000000000000001804c8ab1f12e6bbf3894d4083f33e07309d1f38000000000000000000000000ba5ed44733953d79717f6269357c77718c8ba5ed0000000000000000000000005fbe74a283f7954f10aa04c2edf55578811aeb03000000000000000000000000000000000000000000000000000000000000018000000000000000000000000000000000000000000000000000000000000001e00000000000000000000000000000000000000000000000000000000000000005000000000000000000000000ba5ed44733953d79717f6269357c77718c8ba5ed0000000000000000000000000000000000000000000000000000000000000240000000000000000000000000000000000000000000000000000000000000028000000000000000000000000000000000000000000000000000000000000002c000000000000000000000000015ee7c367f4232241028c36e720803100757c6e900000000000000000000000000000000000000000000000000000000000000000000000000000000000000000000000000000000000000000000000000000040756e696f6e313761756b653066326c3975656a6b3677666b7776686c6170336678647163646c386a6b636d6736636d633533636e717268656b71373932386d300000000000000000000000000000000000000000000000000000000000000040756e696f6e3175757575757575757539756e3271706b73616d37726c747470786338646337366d63706868736d70333970786a6e73767274637176797635377200000000000000000000000000000000000000000000000000000000000000015500000000000000000000000000000000000000000000000000000000000000000000000000000000000000000000000000000000000000000000000000000261750000000000000000000000000000000000000000000000000000000000000000000000000000000000000000000000000000000000000000000000000002617500000000000000000000000000000000000000000000000000000000000000000000000000000000000000000000000000000000000000000000"
        }
      ],
      "isFixedGasLimit": false
    }
  ],
  "receipts": [
    {
      "status": "0x1",
      "cumulativeGasUsed": "0xaa36ed",
      "logs": [
        {
          "address": "0xc0ffeee9becce55b2b4fe5fc4fc4353b54d3f6fb",
          "topics": [
            "0xbc7cd75a20ee27fd9adebab32041f755214dbc6bffa90cc0225b39da2e5c2d3b",
            "0x00000000000000000000000014df5c804533bb4d8ec24b584a5f9e44badb96bd"
          ],
          "data": "0x",
          "blockHash": "0xc318c2e02dbde8a6d2810895bc15b2c86b8323c6691fcf8031b1fdb9b6464079",
          "blockNumber": "0x429168",
          "transactionHash": "0xbe58c1dcfcbe8a10c4925c5f5d5b212f9a5b1193725a625b9044b9a6e803ce0e",
          "transactionIndex": "0x37",
          "logIndex": "0xb8",
          "removed": false
        },
        {
          "address": "0xc0ffeee9becce55b2b4fe5fc4fc4353b54d3f6fb",
          "topics": [
            "0x8be0079c531659141344cd1fd0a4f28419497f9722a3daafe3b4186f6b6457e0",
            "0x0000000000000000000000000000000000000000000000000000000000000000",
            "0x0000000000000000000000001804c8ab1f12e6bbf3894d4083f33e07309d1f38"
          ],
          "data": "0x",
          "blockHash": "0xc318c2e02dbde8a6d2810895bc15b2c86b8323c6691fcf8031b1fdb9b6464079",
          "blockNumber": "0x429168",
          "transactionHash": "0xbe58c1dcfcbe8a10c4925c5f5d5b212f9a5b1193725a625b9044b9a6e803ce0e",
          "transactionIndex": "0x37",
          "logIndex": "0xb9",
          "removed": false
        },
        {
          "address": "0xc0ffeee9becce55b2b4fe5fc4fc4353b54d3f6fb",
          "topics": [
            "0xc7f505b2f371ae2175ee4913f4499e1f2633a7b5936321eed1cdaeb6115181d2"
          ],
          "data": "0x0000000000000000000000000000000000000000000000000000000000000001",
          "blockHash": "0xc318c2e02dbde8a6d2810895bc15b2c86b8323c6691fcf8031b1fdb9b6464079",
          "blockNumber": "0x429168",
          "transactionHash": "0xbe58c1dcfcbe8a10c4925c5f5d5b212f9a5b1193725a625b9044b9a6e803ce0e",
          "transactionIndex": "0x37",
          "logIndex": "0xba",
          "removed": false
        },
        {
          "address": "0xe5fc492b13e67a4bf910c0123487d3be43b7318f",
          "topics": [
            "0xf85df453192f5da4c4ba13b618da916b0e27ca3fa889694a57ef6e5ce55ee2a7",
            "0x000000000000000000000000c0ffeee9becce55b2b4fe5fc4fc4353b54d3f6fb"
          ],
          "data": "0xefb270990b447a91f0654cf24a7b62899c4656f4c3758218f5c900c8323d4e3c",
          "blockHash": "0xc318c2e02dbde8a6d2810895bc15b2c86b8323c6691fcf8031b1fdb9b6464079",
          "blockNumber": "0x429168",
          "transactionHash": "0xbe58c1dcfcbe8a10c4925c5f5d5b212f9a5b1193725a625b9044b9a6e803ce0e",
          "transactionIndex": "0x37",
          "logIndex": "0xbb",
          "removed": false
        }
      ],
      "logsBloom": "0x00000002000000000000000000000000400000000020000000800000000000008000000000000000000000000000000000000000000000000000000000000000000000000000000004000000000002000001000000000000000000000000000000000000020000000001000000000800000080000000080000000000004000400001000000000000000804000000000000000000000080000000000000000000000000000000000100800000000000000000000000000000000000000000000000000420000004000000000000000000000000040004000000000000000020000001000000000000000008000000000000000000000000000000000000002000",
      "type": "0x2",
      "transactionHash": "0xbe58c1dcfcbe8a10c4925c5f5d5b212f9a5b1193725a625b9044b9a6e803ce0e",
      "transactionIndex": "0x37",
      "blockHash": "0xc318c2e02dbde8a6d2810895bc15b2c86b8323c6691fcf8031b1fdb9b6464079",
      "blockNumber": "0x429168",
      "gasUsed": "0x97327",
      "effectiveGasPrice": "0xf4248",
      "from": "0x1285a2214319eff512c5035933ac44e573738772",
      "to": "0xe5fc492b13e67a4bf910c0123487d3be43b7318f",
      "contractAddress": null
    }
  ],
  "libraries": [],
  "pending": [],
  "returns": {},
  "timestamp": 1755559046,
  "chain": 17000,
  "commit": "bbad8d3"
}