{
  "transactions": [
    {
      "hash": "0x2e5ee0d52afbc126e25d04905af99c7c20f12ef2fe261a50dcfb807c0450c234",
      "transactionType": "CALL",
      "contractName": null,
      "contractAddress": "0x226143977e08fea768e5f11f37dce22f9df8be33",
      "function": "deploy(bytes32,bytes)",
      "arguments": [
        "0x365f317b09d71d84fc1a4a354fb23a063adf1c28ee2b9581ef51ae27514c15c0",
        "0x608060405261029d8038038061001481610168565b92833981016040828203126101645781516001600160a01b03811692909190838303610164576020810151906001600160401b03821161016457019281601f8501121561016457835161006e610069826101a1565b610168565b9481865260208601936020838301011161016457815f926020809301865e86010152823b15610152577f360894a13ba1a3210667c828492db98dca3e2076cc3735a920a3ca505d382bbc80546001600160a01b031916821790557fbc7cd75a20ee27fd9adebab32041f755214dbc6bffa90cc0225b39da2e5c2d3b5f80a282511561013a575f8091610122945190845af43d15610132573d91610113610069846101a1565b9283523d5f602085013e6101bc565b505b6040516082908161021b8239f35b6060916101bc565b50505034156101245763b398979f60e01b5f5260045ffd5b634c9c8ce360e01b5f5260045260245ffd5b5f80fd5b6040519190601f01601f191682016001600160401b0381118382101761018d57604052565b634e487b7160e01b5f52604160045260245ffd5b6001600160401b03811161018d57601f01601f191660200190565b906101e057508051156101d157602081519101fd5b63d6bda27560e01b5f5260045ffd5b81511580610211575b6101f1575090565b639996b31560e01b5f9081526001600160a01b0391909116600452602490fd5b50803b156101e956fe60806040527f360894a13ba1a3210667c828492db98dca3e2076cc3735a920a3ca505d382bbc545f9081906001600160a01b0316368280378136915af43d5f803e156048573d5ff35b3d5ffdfea26469706673582212205533c574d514ea20bc32d942ab3fce51adc8c5b61bda9ef113d24dcd14fecc5964736f6c634300081c00330000000000000000000000000f6f7a2846d760c334369918a083940fea3601cb00000000000000000000000000000000000000000000000000000000000000400000000000000000000000000000000000000000000000000000000000000044485cc9550000000000000000000000001285a2214319eff512c5035933ac44e5737387720000000000000000000000005fbe74a283f7954f10aa04c2edf55578811aeb0300000000000000000000000000000000000000000000000000000000"
      ],
      "transaction": {
        "from": "0x1285a2214319eff512c5035933ac44e573738772",
        "to": "0x226143977e08fea768e5f11f37dce22f9df8be33",
        "gas": "0x612f7",
        "value": "0x0",
        "input": "0xcdcb760a365f317b09d71d84fc1a4a354fb23a063adf1c28ee2b9581ef51ae27514c15c00000000000000000000000000000000000000000000000000000000000000040000000000000000000000000000000000000000000000000000000000000035d608060405261029d8038038061001481610168565b92833981016040828203126101645781516001600160a01b03811692909190838303610164576020810151906001600160401b03821161016457019281601f8501121561016457835161006e610069826101a1565b610168565b9481865260208601936020838301011161016457815f926020809301865e86010152823b15610152577f360894a13ba1a3210667c828492db98dca3e2076cc3735a920a3ca505d382bbc80546001600160a01b031916821790557fbc7cd75a20ee27fd9adebab32041f755214dbc6bffa90cc0225b39da2e5c2d3b5f80a282511561013a575f8091610122945190845af43d15610132573d91610113610069846101a1565b9283523d5f602085013e6101bc565b505b6040516082908161021b8239f35b6060916101bc565b50505034156101245763b398979f60e01b5f5260045ffd5b634c9c8ce360e01b5f5260045260245ffd5b5f80fd5b6040519190601f01601f191682016001600160401b0381118382101761018d57604052565b634e487b7160e01b5f52604160045260245ffd5b6001600160401b03811161018d57601f01601f191660200190565b906101e057508051156101d157602081519101fd5b63d6bda27560e01b5f5260045ffd5b81511580610211575b6101f1575090565b639996b31560e01b5f9081526001600160a01b0391909116600452602490fd5b50803b156101e956fe60806040527f360894a13ba1a3210667c828492db98dca3e2076cc3735a920a3ca505d382bbc545f9081906001600160a01b0316368280378136915af43d5f803e156048573d5ff35b3d5ffdfea26469706673582212205533c574d514ea20bc32d942ab3fce51adc8c5b61bda9ef113d24dcd14fecc5964736f6c634300081c00330000000000000000000000000f6f7a2846d760c334369918a083940fea3601cb00000000000000000000000000000000000000000000000000000000000000400000000000000000000000000000000000000000000000000000000000000044485cc9550000000000000000000000001285a2214319eff512c5035933ac44e5737387720000000000000000000000005fbe74a283f7954f10aa04c2edf55578811aeb0300000000000000000000000000000000000000000000000000000000000000",
        "nonce": "0x2b",
        "chainId": "0xaa36a7"
      },
      "additionalContracts": [
        {
          "transactionType": "CREATE2",
          "address": "0xeeeeeee98622c19ea39ea8827ae22bbfc732671c",
          "initCode": "0x608060405261029d8038038061001481610168565b92833981016040828203126101645781516001600160a01b03811692909190838303610164576020810151906001600160401b03821161016457019281601f8501121561016457835161006e610069826101a1565b610168565b9481865260208601936020838301011161016457815f926020809301865e86010152823b15610152577f360894a13ba1a3210667c828492db98dca3e2076cc3735a920a3ca505d382bbc80546001600160a01b031916821790557fbc7cd75a20ee27fd9adebab32041f755214dbc6bffa90cc0225b39da2e5c2d3b5f80a282511561013a575f8091610122945190845af43d15610132573d91610113610069846101a1565b9283523d5f602085013e6101bc565b505b6040516082908161021b8239f35b6060916101bc565b50505034156101245763b398979f60e01b5f5260045ffd5b634c9c8ce360e01b5f5260045260245ffd5b5f80fd5b6040519190601f01601f191682016001600160401b0381118382101761018d57604052565b634e487b7160e01b5f52604160045260245ffd5b6001600160401b03811161018d57601f01601f191660200190565b906101e057508051156101d157602081519101fd5b63d6bda27560e01b5f5260045ffd5b81511580610211575b6101f1575090565b639996b31560e01b5f9081526001600160a01b0391909116600452602490fd5b50803b156101e956fe60806040527f360894a13ba1a3210667c828492db98dca3e2076cc3735a920a3ca505d382bbc545f9081906001600160a01b0316368280378136915af43d5f803e156048573d5ff35b3d5ffdfea26469706673582212205533c574d514ea20bc32d942ab3fce51adc8c5b61bda9ef113d24dcd14fecc5964736f6c634300081c00330000000000000000000000000f6f7a2846d760c334369918a083940fea3601cb00000000000000000000000000000000000000000000000000000000000000400000000000000000000000000000000000000000000000000000000000000044485cc9550000000000000000000000001285a2214319eff512c5035933ac44e5737387720000000000000000000000005fbe74a283f7954f10aa04c2edf55578811aeb0300000000000000000000000000000000000000000000000000000000"
        }
      ],
      "isFixedGasLimit": false
    }
  ],
  "receipts": [
    {
      "status": "0x1",
      "cumulativeGasUsed": "0x93e954",
      "logs": [
        {
          "address": "0xeeeeeee98622c19ea39ea8827ae22bbfc732671c",
          "topics": [
            "0xbc7cd75a20ee27fd9adebab32041f755214dbc6bffa90cc0225b39da2e5c2d3b",
            "0x0000000000000000000000000f6f7a2846d760c334369918a083940fea3601cb"
          ],
          "data": "0x",
          "blockHash": "0xa81c34467c5928a32eba7f745eb847330d6be72b5acad734259366d7a9dcf518",
          "blockNumber": "0x8a12f1",
          "transactionHash": "0x2e5ee0d52afbc126e25d04905af99c7c20f12ef2fe261a50dcfb807c0450c234",
          "transactionIndex": "0x43",
          "logIndex": "0x95",
          "removed": false
        },
        {
          "address": "0xeeeeeee98622c19ea39ea8827ae22bbfc732671c",
          "topics": [
            "0x8be0079c531659141344cd1fd0a4f28419497f9722a3daafe3b4186f6b6457e0",
            "0x0000000000000000000000000000000000000000000000000000000000000000",
            "0x0000000000000000000000001285a2214319eff512c5035933ac44e573738772"
          ],
          "data": "0x",
          "blockHash": "0xa81c34467c5928a32eba7f745eb847330d6be72b5acad734259366d7a9dcf518",
          "blockNumber": "0x8a12f1",
          "transactionHash": "0x2e5ee0d52afbc126e25d04905af99c7c20f12ef2fe261a50dcfb807c0450c234",
          "transactionIndex": "0x43",
          "logIndex": "0x96",
          "removed": false
        },
        {
          "address": "0xeeeeeee98622c19ea39ea8827ae22bbfc732671c",
          "topics": [
            "0xc7f505b2f371ae2175ee4913f4499e1f2633a7b5936321eed1cdaeb6115181d2"
          ],
          "data": "0x0000000000000000000000000000000000000000000000000000000000000001",
          "blockHash": "0xa81c34467c5928a32eba7f745eb847330d6be72b5acad734259366d7a9dcf518",
          "blockNumber": "0x8a12f1",
          "transactionHash": "0x2e5ee0d52afbc126e25d04905af99c7c20f12ef2fe261a50dcfb807c0450c234",
          "transactionIndex": "0x43",
          "logIndex": "0x97",
          "removed": false
        },
        {
          "address": "0x226143977e08fea768e5f11f37dce22f9df8be33",
          "topics": [
            "0x94bfd9af14ef450884c8a7ddb5734e2e1e14e70a1c84f0801cc5a29e34d26428",
            "0x000000000000000000000000eeeeeee98622c19ea39ea8827ae22bbfc732671c"
          ],
          "data": "0x365f317b09d71d84fc1a4a354fb23a063adf1c28ee2b9581ef51ae27514c15c0",
          "blockHash": "0xa81c34467c5928a32eba7f745eb847330d6be72b5acad734259366d7a9dcf518",
          "blockNumber": "0x8a12f1",
          "transactionHash": "0x2e5ee0d52afbc126e25d04905af99c7c20f12ef2fe261a50dcfb807c0450c234",
          "transactionIndex": "0x43",
          "logIndex": "0x98",
          "removed": false
        }
      ],
      "logsBloom": "0x00004080000000000000000000000000480000000000004000800000000000000000000000000000000000000010000000000003000000000000000000000000001000000000000020000000002002000001000000000000000000000000000000000000020000000000000000000800000000000000020000000010000000400000000000010000000800000000000000000000000080000000000000000000000800000000000000000000000000000000000000000000000000080000000000000020004000000400000000000000000000000004000000000000000020000000000000000000000000000000000000000000000000000000000000800000",
      "type": "0x2",
      "transactionHash": "0x2e5ee0d52afbc126e25d04905af99c7c20f12ef2fe261a50dcfb807c0450c234",
      "transactionIndex": "0x43",
      "blockHash": "0xa81c34467c5928a32eba7f745eb847330d6be72b5acad734259366d7a9dcf518",
      "blockNumber": "0x8a12f1",
      "gasUsed": "0x465c5",
      "effectiveGasPrice": "0x365e07",
      "from": "0x1285a2214319eff512c5035933ac44e573738772",
      "to": "0x226143977e08fea768e5f11f37dce22f9df8be33",
      "contractAddress": null
    }
  ],
  "libraries": [],
  "pending": [],
  "returns": {},
  "timestamp": 1755978229,
  "chain": 11155111,
  "commit": "c63415c"
}