{
  "transactions": [
    {
      "hash": "0x2750d9d57e08e47e6def6eb9ea535bdad48b7546342cdf3f56cffaba08cfd1c1",
      "transactionType": "CALL",
      "contractName": null,
      "contractAddress": "0xeeeeeee98622c19ea39ea8827ae22bbfc732671c",
      "function": "approve(address,uint256)",
      "arguments": [
        "0x5FbE74A283f7954f10AA04C2eDf55578811aeb03",
        "1000000000000000000"
      ],
      "transaction": {
        "from": "0x1285a2214319eff512c5035933ac44e573738772",
        "to": "0xeeeeeee98622c19ea39ea8827ae22bbfc732671c",
        "gas": "0x122a4",
        "value": "0x0",
        "input": "0x095ea7b30000000000000000000000005fbe74a283f7954f10aa04c2edf55578811aeb030000000000000000000000000000000000000000000000000de0b6b3a7640000",
        "nonce": "0x15",
        "chainId": "0x4268"
      },
      "additionalContracts": [],
      "isFixedGasLimit": false
    },
    {
      "hash": "0xac8e7e919966e2c3e6dc7d601a227bcf34672916abafed675a2bd57acc1cf1d3",
      "transactionType": "CALL",
      "contractName": null,
      "contractAddress": "0x5fbe74a283f7954f10aa04c2edf55578811aeb03",
      "function": "send(uint32,uint64,uint64,bytes32,(uint8,uint8,bytes))",
      "arguments": [
        "1",
        "0",
        "1756244256",
        "0x9040dbd548a577bc595e60be284d905f91ffff5da870fca8c843ab1ed414e25d",
        "(2, 3, 0x0000000000000000000000000000000000000000000000000000000000000100000000000000000000000000000000000000000000000000000000000000014000000000000000000000000000000000000000000000000000000000000001800000000000000000000000000000000000000000000000000de0b6b3a764000000000000000000000000000000000000000000000000000000000000000001c00000000000000000000000000000000000000000000000000de0b6b3a76400000000000000000000000000000000000000000000000000000000000000000003000000000000000000000000000000000000000000000000000000000000020000000000000000000000000000000000000000000000000000000000000000141285a2214319eff512c5035933ac44e57373877200000000000000000000000000000000000000000000000000000000000000000000000000000000000000141285a2214319eff512c5035933ac44e5737387720000000000000000000000000000000000000000000000000000000000000000000000000000000000000014eeeeeee98622c19ea39ea8827ae22bbfc732671c0000000000000000000000000000000000000000000000000000000000000000000000000000000000000014eeeeeee98622c19ea39ea8827ae22bbfc732671c00000000000000000000000000000000000000000000000000000000000000000000000000000000000000a0000000000000000000000000000000000000000000000000000000000000004000000000000000000000000000000000000000000000000000000000000000800000000000000000000000000000000000000000000000000000000000000014eeeeeee98622c19ea39ea8827ae22bbfc732671c0000000000000000000000000000000000000000000000000000000000000000000000000000000000000000)"
      ],
      "transaction": {
        "from": "0x1285a2214319eff512c5035933ac44e573738772",
        "to": "0x5fbe74a283f7954f10aa04c2edf55578811aeb03",
        "gas": "0x32b79",
        "value": "0x0",
        "input": "0xff0d7c2f000000000000000000000000000000000000000000000000000000000000000100000000000000000000000000000000000000000000000000000000000000000000000000000000000000000000000000000000000000000000000068ae29209040dbd548a577bc595e60be284d905f91ffff5da870fca8c843ab1ed414e25d00000000000000000000000000000000000000000000000000000000000000a000000000000000000000000000000000000000000000000000000000000000020000000000000000000000000000000000000000000000000000000000000003000000000000000000000000000000000000000000000000000000000000006000000000000000000000000000000000000000000000000000000000000002c00000000000000000000000000000000000000000000000000000000000000100000000000000000000000000000000000000000000000000000000000000014000000000000000000000000000000000000000000000000000000000000001800000000000000000000000000000000000000000000000000de0b6b3a764000000000000000000000000000000000000000000000000000000000000000001c00000000000000000000000000000000000000000000000000de0b6b3a76400000000000000000000000000000000000000000000000000000000000000000003000000000000000000000000000000000000000000000000000000000000020000000000000000000000000000000000000000000000000000000000000000141285a2214319eff512c5035933ac44e57373877200000000000000000000000000000000000000000000000000000000000000000000000000000000000000141285a2214319eff512c5035933ac44e5737387720000000000000000000000000000000000000000000000000000000000000000000000000000000000000014eeeeeee98622c19ea39ea8827ae22bbfc732671c0000000000000000000000000000000000000000000000000000000000000000000000000000000000000014eeeeeee98622c19ea39ea8827ae22bbfc732671c00000000000000000000000000000000000000000000000000000000000000000000000000000000000000a0000000000000000000000000000000000000000000000000000000000000004000000000000000000000000000000000000000000000000000000000000000800000000000000000000000000000000000000000000000000000000000000014eeeeeee98622c19ea39ea8827ae22bbfc732671c0000000000000000000000000000000000000000000000000000000000000000000000000000000000000000",
        "nonce": "0x16",
        "chainId": "0x4268"
      },
      "additionalContracts": [],
      "isFixedGasLimit": false
    }
  ],
  "receipts": [
    {
      "status": "0x1",
      "cumulativeGasUsed": "0x3e67b6",
      "logs": [
        {
          "address": "0xeeeeeee98622c19ea39ea8827ae22bbfc732671c",
          "topics": [
            "0x8c5be1e5ebec7d5bd14f71427d1e84f3dd0314c0f7b2291e5b200ac8c7c3b925",
            "0x0000000000000000000000001285a2214319eff512c5035933ac44e573738772",
            "0x0000000000000000000000005fbe74a283f7954f10aa04c2edf55578811aeb03"
          ],
          "data": "0x0000000000000000000000000000000000000000000000000de0b6b3a7640000",
          "blockHash": "0x27f83d91e439d69fcf8c0e7c03915343ad0d016c5d909d92cca5c0870a04602f",
          "blockNumber": "0x42fcab",
          "transactionHash": "0x2750d9d57e08e47e6def6eb9ea535bdad48b7546342cdf3f56cffaba08cfd1c1",
          "transactionIndex": "0x20",
          "logIndex": "0x3f",
          "removed": false
        }
      ],
      "logsBloom": "0x00004080000000000000000000000004000000000000000000000000000000000000000000000000000000000000000000000000000000000000000000200000000000000000000000000000000000000000000000000000000000000000000000000000000000000000000000000000000000000000020000000000000000400000000000010000000000000000000000000000000000000000000000000000020000000000000000000000000000000000000000000000000000080000000000000000000000000000000000000000000000000000000000000000000000000010000000000000000000000000000020000000000000000000000000800000",
      "type": "0x2",
      "transactionHash": "0x2750d9d57e08e47e6def6eb9ea535bdad48b7546342cdf3f56cffaba08cfd1c1",
      "transactionIndex": "0x20",
      "blockHash": "0x27f83d91e439d69fcf8c0e7c03915343ad0d016c5d909d92cca5c0870a04602f",
      "blockNumber": "0x42fcab",
      "gasUsed": "0xc6bb",
      "effectiveGasPrice": "0xf4248",
      "from": "0x1285a2214319eff512c5035933ac44e573738772",
      "to": "0xeeeeeee98622c19ea39ea8827ae22bbfc732671c",
      "contractAddress": null
    },
    {
      "status": "0x1",
      "cumulativeGasUsed": "0x40b335",
      "logs": [
        {
          "address": "0xeeeeeee98622c19ea39ea8827ae22bbfc732671c",
          "topics": [
            "0xddf252ad1be2c89b69c2b068fc378daa952ba7f163c4a11628f55a4df523b3ef",
            "0x0000000000000000000000001285a2214319eff512c5035933ac44e573738772",
            "0x0000000000000000000000005fbe74a283f7954f10aa04c2edf55578811aeb03"
          ],
          "data": "0x0000000000000000000000000000000000000000000000000de0b6b3a7640000",
          "blockHash": "0x27f83d91e439d69fcf8c0e7c03915343ad0d016c5d909d92cca5c0870a04602f",
          "blockNumber": "0x42fcab",
          "transactionHash": "0xac8e7e919966e2c3e6dc7d601a227bcf34672916abafed675a2bd57acc1cf1d3",
          "transactionIndex": "0x21",
          "logIndex": "0x40",
          "removed": false
        },
        {
          "address": "0xee4ea8d358473f0fcebf0329feed95d56e8c04d7",
          "topics": [
            "0x635b5d234fe7abddfb29b6c8498780a3175c9002c537f20a3d1bf9d0e625b5fe",
            "0x0000000000000000000000000000000000000000000000000000000000000001",
            "0xf149f607a04b67d9b7f2d2e7a9002371bb3363edc5498182449acb8f3e05c72c"
          ],
          "data": "0x00000000000000000000000000000000000000000000000000000000000000200000000000000000000000000000000000000000000000000000000000000001000000000000000000000000000000000000000000000000000000000000000600000000000000000000000000000000000000000000000000000000000000a000000000000000000000000000000000000000000000000000000000000000000000000000000000000000000000000000000000000000000000000068ae292000000000000000000000000000000000000000000000000000000000000003a0f5721e2dd0b0e413851b232510ad27bfcbeabd46eec6e147224dd5c65b7177dd0000000000000000000000000000000000000000000000000000000000000000000000000000000000000000000000000000000000000000000000000000006000000000000000000000000000000000000000000000000000000000000000020000000000000000000000000000000000000000000000000000000000000003000000000000000000000000000000000000000000000000000000000000006000000000000000000000000000000000000000000000000000000000000002c00000000000000000000000000000000000000000000000000000000000000100000000000000000000000000000000000000000000000000000000000000014000000000000000000000000000000000000000000000000000000000000001800000000000000000000000000000000000000000000000000de0b6b3a764000000000000000000000000000000000000000000000000000000000000000001c00000000000000000000000000000000000000000000000000de0b6b3a76400000000000000000000000000000000000000000000000000000000000000000003000000000000000000000000000000000000000000000000000000000000020000000000000000000000000000000000000000000000000000000000000000141285a2214319eff512c5035933ac44e57373877200000000000000000000000000000000000000000000000000000000000000000000000000000000000000141285a2214319eff512c5035933ac44e5737387720000000000000000000000000000000000000000000000000000000000000000000000000000000000000014eeeeeee98622c19ea39ea8827ae22bbfc732671c0000000000000000000000000000000000000000000000000000000000000000000000000000000000000014eeeeeee98622c19ea39ea8827ae22bbfc732671c00000000000000000000000000000000000000000000000000000000000000000000000000000000000000a0000000000000000000000000000000000000000000000000000000000000004000000000000000000000000000000000000000000000000000000000000000800000000000000000000000000000000000000000000000000000000000000014eeeeeee98622c19ea39ea8827ae22bbfc732671c0000000000000000000000000000000000000000000000000000000000000000000000000000000000000000",
          "blockHash": "0x27f83d91e439d69fcf8c0e7c03915343ad0d016c5d909d92cca5c0870a04602f",
          "blockNumber": "0x42fcab",
          "transactionHash": "0xac8e7e919966e2c3e6dc7d601a227bcf34672916abafed675a2bd57acc1cf1d3",
          "transactionIndex": "0x21",
          "logIndex": "0x41",
          "removed": false
        }
      ],
      "logsBloom": "0x00004080000000004000000000008004000000000000000000000000000000000000000000000000000000000000000000000000080000000000000200060000000000000020000000000008000000000100000000040000000000000000000000000000000000000000000000000000000000000000020000000010000000400000000000010000000000000000000000000000000000000000000000000000000000000000000000000000000000000000000000000000200000080000000000000002000000000000000000000000000400000000000000000000000040000000000000000000000000000000000020000000000000000000000000800000",
      "type": "0x2",
      "transactionHash": "0xac8e7e919966e2c3e6dc7d601a227bcf34672916abafed675a2bd57acc1cf1d3",
      "transactionIndex": "0x21",
      "blockHash": "0x27f83d91e439d69fcf8c0e7c03915343ad0d016c5d909d92cca5c0870a04602f",
      "blockNumber": "0x42fcab",
      "gasUsed": "0x24b7f",
      "effectiveGasPrice": "0xf4248",
      "from": "0x1285a2214319eff512c5035933ac44e573738772",
      "to": "0x5fbe74a283f7954f10aa04c2edf55578811aeb03",
      "contractAddress": null
    }
  ],
  "libraries": [],
  "pending": [],
  "returns": {},
  "timestamp": 1755985094,
  "chain": 17000,
  "commit": "07cb2ae"
}