{
  "transactions": [
    {
      "hash": "0x3acb0e9bfeee8c3fd4a69d59cfdd97c888deeb5fd37baa081bf47d6ca2d00d0a",
      "transactionType": "CALL",
      "contractName": null,
      "contractAddress": "0xeeeeeee98622c19ea39ea8827ae22bbfc732671c",
      "function": "mint(address,uint256)",
      "arguments": [
        "0x1285a2214319Eff512C5035933ac44E573738772",
        "1000000000000000000"
      ],
      "transaction": {
        "from": "0x1285a2214319eff512c5035933ac44e573738772",
        "to": "0xeeeeeee98622c19ea39ea8827ae22bbfc732671c",
        "gas": "0x139f4",
        "value": "0x0",
        "input": "0x40c10f190000000000000000000000001285a2214319eff512c5035933ac44e5737387720000000000000000000000000000000000000000000000000de0b6b3a7640000",
        "nonce": "0x17",
        "chainId": "0x4268"
      },
      "additionalContracts": [],
      "isFixedGasLimit": false
    },
    {
      "hash": "0x0586ec913c228a446f875b221f3070b16c4598904489bf42554166a42d492c15",
      "transactionType": "CALL",
      "contractName": null,
      "contractAddress": "0xeeeeeee98622c19ea39ea8827ae22bbfc732671c",
      "function": "approve(address,uint256)",
      "arguments": [
        "0x5FbE74A283f7954f10AA04C2eDf55578811aeb03",
        "1000000000000000000"
      ],
      "transaction": {
        "from": "0x1285a2214319eff512c5035933ac44e573738772",
        "to": "0xeeeeeee98622c19ea39ea8827ae22bbfc732671c",
        "gas": "0x122a4",
        "value": "0x0",
        "input": "0x095ea7b30000000000000000000000005fbe74a283f7954f10aa04c2edf55578811aeb030000000000000000000000000000000000000000000000000de0b6b3a7640000",
        "nonce": "0x18",
        "chainId": "0x4268"
      },
      "additionalContracts": [],
      "isFixedGasLimit": false
    },
    {
      "hash": "0x383694565fbb3fe39aee2c0bf8740abbd402bc3f49218848ef2b6deba4ee5ec4",
      "transactionType": "CALL",
      "contractName": null,
      "contractAddress": "0x5fbe74a283f7954f10aa04c2edf55578811aeb03",
      "function": "send(uint32,uint64,uint64,bytes32,(uint8,uint8,bytes))",
      "arguments": [
        "1",
        "0",
        "1756244568000000000",
        "0x6f82bcb88d7d489f173125577bcf7067ff68c1602141c0db1f06518b9140e18f",
        "(2, 3, 0x0000000000000000000000000000000000000000000000000000000000000100000000000000000000000000000000000000000000000000000000000000014000000000000000000000000000000000000000000000000000000000000001800000000000000000000000000000000000000000000000000de0b6b3a764000000000000000000000000000000000000000000000000000000000000000001c00000000000000000000000000000000000000000000000000de0b6b3a76400000000000000000000000000000000000000000000000000000000000000000003000000000000000000000000000000000000000000000000000000000000020000000000000000000000000000000000000000000000000000000000000000141285a2214319eff512c5035933ac44e57373877200000000000000000000000000000000000000000000000000000000000000000000000000000000000000141285a2214319eff512c5035933ac44e5737387720000000000000000000000000000000000000000000000000000000000000000000000000000000000000014eeeeeee98622c19ea39ea8827ae22bbfc732671c0000000000000000000000000000000000000000000000000000000000000000000000000000000000000014eeeeeee98622c19ea39ea8827ae22bbfc732671c00000000000000000000000000000000000000000000000000000000000000000000000000000000000000a0000000000000000000000000000000000000000000000000000000000000004000000000000000000000000000000000000000000000000000000000000000800000000000000000000000000000000000000000000000000000000000000014eeeeeee98622c19ea39ea8827ae22bbfc732671c0000000000000000000000000000000000000000000000000000000000000000000000000000000000000000)"
      ],
      "transaction": {
        "from": "0x1285a2214319eff512c5035933ac44e573738772",
        "to": "0x5fbe74a283f7954f10aa04c2edf55578811aeb03",
        "gas": "0x29809",
        "value": "0x0",
        "input": "0xff0d7c2f00000000000000000000000000000000000000000000000000000000000000010000000000000000000000000000000000000000000000000000000000000000000000000000000000000000000000000000000000000000185f6f212e5970006f82bcb88d7d489f173125577bcf7067ff68c1602141c0db1f06518b9140e18f00000000000000000000000000000000000000000000000000000000000000a000000000000000000000000000000000000000000000000000000000000000020000000000000000000000000000000000000000000000000000000000000003000000000000000000000000000000000000000000000000000000000000006000000000000000000000000000000000000000000000000000000000000002c00000000000000000000000000000000000000000000000000000000000000100000000000000000000000000000000000000000000000000000000000000014000000000000000000000000000000000000000000000000000000000000001800000000000000000000000000000000000000000000000000de0b6b3a764000000000000000000000000000000000000000000000000000000000000000001c00000000000000000000000000000000000000000000000000de0b6b3a76400000000000000000000000000000000000000000000000000000000000000000003000000000000000000000000000000000000000000000000000000000000020000000000000000000000000000000000000000000000000000000000000000141285a2214319eff512c5035933ac44e57373877200000000000000000000000000000000000000000000000000000000000000000000000000000000000000141285a2214319eff512c5035933ac44e5737387720000000000000000000000000000000000000000000000000000000000000000000000000000000000000014eeeeeee98622c19ea39ea8827ae22bbfc732671c0000000000000000000000000000000000000000000000000000000000000000000000000000000000000014eeeeeee98622c19ea39ea8827ae22bbfc732671c00000000000000000000000000000000000000000000000000000000000000000000000000000000000000a0000000000000000000000000000000000000000000000000000000000000004000000000000000000000000000000000000000000000000000000000000000800000000000000000000000000000000000000000000000000000000000000014eeeeeee98622c19ea39ea8827ae22bbfc732671c0000000000000000000000000000000000000000000000000000000000000000000000000000000000000000",
        "nonce": "0x19",
        "chainId": "0x4268"
      },
      "additionalContracts": [],
      "isFixedGasLimit": false
    }
  ],
  "receipts": [
    {
      "status": "0x1",
      "cumulativeGasUsed": "0x427e61",
      "logs": [
        {
          "address": "0xeeeeeee98622c19ea39ea8827ae22bbfc732671c",
          "topics": [
            "0xddf252ad1be2c89b69c2b068fc378daa952ba7f163c4a11628f55a4df523b3ef",
            "0x0000000000000000000000000000000000000000000000000000000000000000",
            "0x0000000000000000000000001285a2214319eff512c5035933ac44e573738772"
          ],
          "data": "0x0000000000000000000000000000000000000000000000000de0b6b3a7640000",
          "blockHash": "0xfe444e43abc2d1875d2f16e16815e820fe9dceec604f22a8e27dc6c7e85057b2",
          "blockNumber": "0x42fcbb",
          "transactionHash": "0x3acb0e9bfeee8c3fd4a69d59cfdd97c888deeb5fd37baa081bf47d6ca2d00d0a",
          "transactionIndex": "0x1b",
          "logIndex": "0x3f",
          "removed": false
        }
      ],
      "logsBloom": "0x00004080000000000000000000000000000000000000000000000000000000000000000000000000000000000000000000000000000000000000000000000000000000000000000000000008000000000000000000000000000000000000000000000000020000000000000000000800000000000000020000000010000000000000000000010000000000000000000000000000000000000000000000000000000000000000000000000000000000000000000000000000000000080000000000000002000000000000000000000000000000000000000000000000000020000000000000000000000000000000000000000000000000000000000000800000",
      "type": "0x2",
      "transactionHash": "0x3acb0e9bfeee8c3fd4a69d59cfdd97c888deeb5fd37baa081bf47d6ca2d00d0a",
      "transactionIndex": "0x1b",
      "blockHash": "0xfe444e43abc2d1875d2f16e16815e820fe9dceec604f22a8e27dc6c7e85057b2",
      "blockNumber": "0x42fcbb",
      "gasUsed": "0xe34d",
      "effectiveGasPrice": "0xf4249",
      "from": "0x1285a2214319eff512c5035933ac44e573738772",
      "to": "0xeeeeeee98622c19ea39ea8827ae22bbfc732671c",
      "contractAddress": null
    },
    {
      "status": "0x1",
      "cumulativeGasUsed": "0x43451c",
      "logs": [
        {
          "address": "0xeeeeeee98622c19ea39ea8827ae22bbfc732671c",
          "topics": [
            "0x8c5be1e5ebec7d5bd14f71427d1e84f3dd0314c0f7b2291e5b200ac8c7c3b925",
            "0x0000000000000000000000001285a2214319eff512c5035933ac44e573738772",
            "0x0000000000000000000000005fbe74a283f7954f10aa04c2edf55578811aeb03"
          ],
          "data": "0x0000000000000000000000000000000000000000000000000de0b6b3a7640000",
          "blockHash": "0xfe444e43abc2d1875d2f16e16815e820fe9dceec604f22a8e27dc6c7e85057b2",
          "blockNumber": "0x42fcbb",
          "transactionHash": "0x0586ec913c228a446f875b221f3070b16c4598904489bf42554166a42d492c15",
          "transactionIndex": "0x1c",
          "logIndex": "0x40",
          "removed": false
        }
      ],
      "logsBloom": "0x00004080000000000000000000000004000000000000000000000000000000000000000000000000000000000000000000000000000000000000000000200000000000000000000000000000000000000000000000000000000000000000000000000000000000000000000000000000000000000000020000000000000000400000000000010000000000000000000000000000000000000000000000000000020000000000000000000000000000000000000000000000000000080000000000000000000000000000000000000000000000000000000000000000000000000010000000000000000000000000000020000000000000000000000000800000",
      "type": "0x2",
      "transactionHash": "0x0586ec913c228a446f875b221f3070b16c4598904489bf42554166a42d492c15",
      "transactionIndex": "0x1c",
      "blockHash": "0xfe444e43abc2d1875d2f16e16815e820fe9dceec604f22a8e27dc6c7e85057b2",
      "blockNumber": "0x42fcbb",
      "gasUsed": "0xc6bb",
      "effectiveGasPrice": "0xf4249",
      "from": "0x1285a2214319eff512c5035933ac44e573738772",
      "to": "0xeeeeeee98622c19ea39ea8827ae22bbfc732671c",
      "contractAddress": null
    },
    {
      "status": "0x1",
      "cumulativeGasUsed": "0x450b27",
      "logs": [
        {
          "address": "0xeeeeeee98622c19ea39ea8827ae22bbfc732671c",
          "topics": [
            "0xddf252ad1be2c89b69c2b068fc378daa952ba7f163c4a11628f55a4df523b3ef",
            "0x0000000000000000000000001285a2214319eff512c5035933ac44e573738772",
            "0x0000000000000000000000005fbe74a283f7954f10aa04c2edf55578811aeb03"
          ],
          "data": "0x0000000000000000000000000000000000000000000000000de0b6b3a7640000",
          "blockHash": "0xfe444e43abc2d1875d2f16e16815e820fe9dceec604f22a8e27dc6c7e85057b2",
          "blockNumber": "0x42fcbb",
          "transactionHash": "0x383694565fbb3fe39aee2c0bf8740abbd402bc3f49218848ef2b6deba4ee5ec4",
          "transactionIndex": "0x1d",
          "logIndex": "0x41",
          "removed": false
        },
        {
          "address": "0xee4ea8d358473f0fcebf0329feed95d56e8c04d7",
          "topics": [
            "0x635b5d234fe7abddfb29b6c8498780a3175c9002c537f20a3d1bf9d0e625b5fe",
            "0x0000000000000000000000000000000000000000000000000000000000000001",
            "0x5a903a3ac5dd830bb51b19eb6d199ab38d9898350e25e9fded1201389be9a2f9"
          ],
          "data": "0x00000000000000000000000000000000000000000000000000000000000000200000000000000000000000000000000000000000000000000000000000000001000000000000000000000000000000000000000000000000000000000000000600000000000000000000000000000000000000000000000000000000000000a00000000000000000000000000000000000000000000000000000000000000000000000000000000000000000000000000000000000000000185f6f212e59700000000000000000000000000000000000000000000000000000000000000003a001298e6114eca7b9028ab196f97c9cc7b8bac91d7ee4acd5f0b6b43ede813f150000000000000000000000000000000000000000000000000000000000000000000000000000000000000000000000000000000000000000000000000000006000000000000000000000000000000000000000000000000000000000000000020000000000000000000000000000000000000000000000000000000000000003000000000000000000000000000000000000000000000000000000000000006000000000000000000000000000000000000000000000000000000000000002c00000000000000000000000000000000000000000000000000000000000000100000000000000000000000000000000000000000000000000000000000000014000000000000000000000000000000000000000000000000000000000000001800000000000000000000000000000000000000000000000000de0b6b3a764000000000000000000000000000000000000000000000000000000000000000001c00000000000000000000000000000000000000000000000000de0b6b3a76400000000000000000000000000000000000000000000000000000000000000000003000000000000000000000000000000000000000000000000000000000000020000000000000000000000000000000000000000000000000000000000000000141285a2214319eff512c5035933ac44e57373877200000000000000000000000000000000000000000000000000000000000000000000000000000000000000141285a2214319eff512c5035933ac44e5737387720000000000000000000000000000000000000000000000000000000000000000000000000000000000000014eeeeeee98622c19ea39ea8827ae22bbfc732671c0000000000000000000000000000000000000000000000000000000000000000000000000000000000000014eeeeeee98622c19ea39ea8827ae22bbfc732671c00000000000000000000000000000000000000000000000000000000000000000000000000000000000000a0000000000000000000000000000000000000000000000000000000000000004000000000000000000000000000000000000000000000000000000000000000800000000000000000000000000000000000000000000000000000000000000014eeeeeee98622c19ea39ea8827ae22bbfc732671c0000000000000000000000000000000000000000000000000000000000000000000000000000000000000000",
          "blockHash": "0xfe444e43abc2d1875d2f16e16815e820fe9dceec604f22a8e27dc6c7e85057b2",
          "blockNumber": "0x42fcbb",
          "transactionHash": "0x383694565fbb3fe39aee2c0bf8740abbd402bc3f49218848ef2b6deba4ee5ec4",
          "transactionIndex": "0x1d",
          "logIndex": "0x42",
          "removed": false
        }
      ],
      "logsBloom": "0x00004080000400000000000000008004000000000000000000000000000000000000000000000000000000000000000000000000000000000000000200040000000000000020000000000008000000000100000000040000000000000000000000000000000008000000000000000000000000000000020000000010000000400000000000010000000000000000000000000001000000000000000000000000000000000000000000000000000000000000000000000000200000080000000000000002000000000000000000000000000400000000000000000000000040000000000000000000000000000000000020000000000000000000000000800000",
      "type": "0x2",
      "transactionHash": "0x383694565fbb3fe39aee2c0bf8740abbd402bc3f49218848ef2b6deba4ee5ec4",
      "transactionIndex": "0x1d",
      "blockHash": "0xfe444e43abc2d1875d2f16e16815e820fe9dceec604f22a8e27dc6c7e85057b2",
      "blockNumber": "0x42fcbb",
      "gasUsed": "0x1c60b",
      "effectiveGasPrice": "0xf4249",
      "from": "0x1285a2214319eff512c5035933ac44e573738772",
      "to": "0x5fbe74a283f7954f10aa04c2edf55578811aeb03",
      "contractAddress": null
    }
  ],
  "libraries": [],
  "pending": [],
  "returns": {},
  "timestamp": 1755985394,
  "chain": 17000,
  "commit": "07cb2ae"
}