{
  "transactions": [
    {
      "hash": "0x32b0a97c605f35f3990e96da1ce01155dbc389305c430c309acb3254f79e7aac",
      "transactionType": "CALL",
      "contractName": null,
      "contractAddress": "0xeeeeeee98622c19ea39ea8827ae22bbfc732671c",
      "function": "mint(address,uint256)",
      "arguments": [
        "0x1285a2214319Eff512C5035933ac44E573738772",
        "300000000000000000"
      ],
      "transaction": {
        "from": "0x1285a2214319eff512c5035933ac44e573738772",
        "to": "0xeeeeeee98622c19ea39ea8827ae22bbfc732671c",
        "gas": "0xeabc",
        "value": "0x0",
        "input": "0x40c10f190000000000000000000000001285a2214319eff512c5035933ac44e5737387720000000000000000000000000000000000000000000000000429d069189e0000",
        "nonce": "0x22",
        "chainId": "0x4268"
      },
      "additionalContracts": [],
      "isFixedGasLimit": false
    },
    {
      "hash": "0x0a3164dcbb628a0a1bf48394c8d6b667e85f4e079a64e8e69f1c70ed84ae45ca",
      "transactionType": "CALL",
      "contractName": null,
      "contractAddress": "0xeeeeeee98622c19ea39ea8827ae22bbfc732671c",
      "function": "approve(address,uint256)",
      "arguments": [
        "0x5FbE74A283f7954f10AA04C2eDf55578811aeb03",
        "300000000000000000"
      ],
      "transaction": {
        "from": "0x1285a2214319eff512c5035933ac44e573738772",
        "to": "0xeeeeeee98622c19ea39ea8827ae22bbfc732671c",
        "gas": "0x122a4",
        "value": "0x0",
        "input": "0x095ea7b30000000000000000000000005fbe74a283f7954f10aa04c2edf55578811aeb030000000000000000000000000000000000000000000000000429d069189e0000",
        "nonce": "0x23",
        "chainId": "0x4268"
      },
      "additionalContracts": [],
      "isFixedGasLimit": false
    },
    {
      "hash": "0x20efa4fa5a342765bac7e9aef272df195152b3238f0c7fc5a2f5d9290afbe7d7",
      "transactionType": "CALL",
      "contractName": null,
      "contractAddress": "0x5fbe74a283f7954f10aa04c2edf55578811aeb03",
      "function": "send(uint32,uint64,uint64,bytes32,(uint8,uint8,bytes))",
      "arguments": [
        "6",
        "0",
        "1756331244000000000",
        "0xb73829e46234cb19ea09655b681b7262054b7f54f9fd1c07a26bd28c10bfe565",
        "(2, 3, 0x0000000000000000000000000000000000000000000000000000000000000100000000000000000000000000000000000000000000000000000000000000014000000000000000000000000000000000000000000000000000000000000001a00000000000000000000000000000000000000000000000000429d069189e000000000000000000000000000000000000000000000000000000000000000001e00000000000000000000000000000000000000000000000000429d069189e00000000000000000000000000000000000000000000000000000000000000000003000000000000000000000000000000000000000000000000000000000000024000000000000000000000000000000000000000000000000000000000000000141285a2214319eff512c5035933ac44e573738772000000000000000000000000000000000000000000000000000000000000000000000000000000000000002c756e696f6e31793375346d77333961646e67656e6c7a77716d36687a3630666c7a323567737832727175686100000000000000000000000000000000000000000000000000000000000000000000000000000000000000000000000000000014eeeeeee98622c19ea39ea8827ae22bbfc732671c0000000000000000000000000000000000000000000000000000000000000000000000000000000000000040756e696f6e316e6b6a787374396535666a336464386d7a6d34737664306d676e396d6d37633776736d387a6a70633975736d646a63613878707364657732767100000000000000000000000000000000000000000000000000000000000000c0000000000000000000000000000000000000000000000000000000000000004000000000000000000000000000000000000000000000000000000000000000a00000000000000000000000000000000000000000000000000000000000000040756e696f6e316e6b6a787374396535666a336464386d7a6d34737664306d676e396d6d37633776736d387a6a70633975736d646a6361387870736465773276710000000000000000000000000000000000000000000000000000000000000000)"
      ],
      "transaction": {
        "from": "0x1285a2214319eff512c5035933ac44e573738772",
        "to": "0x5fbe74a283f7954f10aa04c2edf55578811aeb03",
        "gas": "0x29be5",
        "value": "0x0",
        "input": "0xff0d7c2f00000000000000000000000000000000000000000000000000000000000000060000000000000000000000000000000000000000000000000000000000000000000000000000000000000000000000000000000000000000185fbdf6028a3800b73829e46234cb19ea09655b681b7262054b7f54f9fd1c07a26bd28c10bfe56500000000000000000000000000000000000000000000000000000000000000a000000000000000000000000000000000000000000000000000000000000000020000000000000000000000000000000000000000000000000000000000000003000000000000000000000000000000000000000000000000000000000000006000000000000000000000000000000000000000000000000000000000000003200000000000000000000000000000000000000000000000000000000000000100000000000000000000000000000000000000000000000000000000000000014000000000000000000000000000000000000000000000000000000000000001a00000000000000000000000000000000000000000000000000429d069189e000000000000000000000000000000000000000000000000000000000000000001e00000000000000000000000000000000000000000000000000429d069189e00000000000000000000000000000000000000000000000000000000000000000003000000000000000000000000000000000000000000000000000000000000024000000000000000000000000000000000000000000000000000000000000000141285a2214319eff512c5035933ac44e573738772000000000000000000000000000000000000000000000000000000000000000000000000000000000000002c756e696f6e31793375346d77333961646e67656e6c7a77716d36687a3630666c7a323567737832727175686100000000000000000000000000000000000000000000000000000000000000000000000000000000000000000000000000000014eeeeeee98622c19ea39ea8827ae22bbfc732671c0000000000000000000000000000000000000000000000000000000000000000000000000000000000000040756e696f6e316e6b6a787374396535666a336464386d7a6d34737664306d676e396d6d37633776736d387a6a70633975736d646a63613878707364657732767100000000000000000000000000000000000000000000000000000000000000c0000000000000000000000000000000000000000000000000000000000000004000000000000000000000000000000000000000000000000000000000000000a00000000000000000000000000000000000000000000000000000000000000040756e696f6e316e6b6a787374396535666a336464386d7a6d34737664306d676e396d6d37633776736d387a6a70633975736d646a6361387870736465773276710000000000000000000000000000000000000000000000000000000000000000",
        "nonce": "0x24",
        "chainId": "0x4268"
      },
      "additionalContracts": [],
      "isFixedGasLimit": false
    }
  ],
  "receipts": [
    {
      "status": "0x1",
      "cumulativeGasUsed": "0x4e2337",
      "logs": [
        {
          "address": "0xeeeeeee98622c19ea39ea8827ae22bbfc732671c",
          "topics": [
            "0xddf252ad1be2c89b69c2b068fc378daa952ba7f163c4a11628f55a4df523b3ef",
            "0x0000000000000000000000000000000000000000000000000000000000000000",
            "0x0000000000000000000000001285a2214319eff512c5035933ac44e573738772"
          ],
          "data": "0x0000000000000000000000000000000000000000000000000429d069189e0000",
          "blockHash": "0xbc2bf966ac007217c14b825c7b37dfef3b89ec29ee55cbccc43e49d060d03d0a",
          "blockNumber": "0x4311df",
          "transactionHash": "0x32b0a97c605f35f3990e96da1ce01155dbc389305c430c309acb3254f79e7aac",
          "transactionIndex": "0x23",
          "logIndex": "0x4f",
          "removed": false
        }
      ],
      "logsBloom": "0x00004080000000000000000000000000000000000000000000000000000000000000000000000000000000000000000000000000000000000000000000000000000000000000000000000008000000000000000000000000000000000000000000000000020000000000000000000800000000000000020000000010000000000000000000010000000000000000000000000000000000000000000000000000000000000000000000000000000000000000000000000000000000080000000000000002000000000000000000000000000000000000000000000000000020000000000000000000000000000000000000000000000000000000000000800000",
      "type": "0x2",
      "transactionHash": "0x32b0a97c605f35f3990e96da1ce01155dbc389305c430c309acb3254f79e7aac",
      "transactionIndex": "0x23",
      "blockHash": "0xbc2bf966ac007217c14b825c7b37dfef3b89ec29ee55cbccc43e49d060d03d0a",
      "blockNumber": "0x4311df",
      "gasUsed": "0xa081",
      "effectiveGasPrice": "0xf4247",
      "from": "0x1285a2214319eff512c5035933ac44e573738772",
      "to": "0xeeeeeee98622c19ea39ea8827ae22bbfc732671c",
      "contractAddress": null
    },
    {
      "status": "0x1",
      "cumulativeGasUsed": "0x4ee9f2",
      "logs": [
        {
          "address": "0xeeeeeee98622c19ea39ea8827ae22bbfc732671c",
          "topics": [
            "0x8c5be1e5ebec7d5bd14f71427d1e84f3dd0314c0f7b2291e5b200ac8c7c3b925",
            "0x0000000000000000000000001285a2214319eff512c5035933ac44e573738772",
            "0x0000000000000000000000005fbe74a283f7954f10aa04c2edf55578811aeb03"
          ],
          "data": "0x0000000000000000000000000000000000000000000000000429d069189e0000",
          "blockHash": "0xbc2bf966ac007217c14b825c7b37dfef3b89ec29ee55cbccc43e49d060d03d0a",
          "blockNumber": "0x4311df",
          "transactionHash": "0x0a3164dcbb628a0a1bf48394c8d6b667e85f4e079a64e8e69f1c70ed84ae45ca",
          "transactionIndex": "0x24",
          "logIndex": "0x50",
          "removed": false
        }
      ],
      "logsBloom": "0x00004080000000000000000000000004000000000000000000000000000000000000000000000000000000000000000000000000000000000000000000200000000000000000000000000000000000000000000000000000000000000000000000000000000000000000000000000000000000000000020000000000000000400000000000010000000000000000000000000000000000000000000000000000020000000000000000000000000000000000000000000000000000080000000000000000000000000000000000000000000000000000000000000000000000000010000000000000000000000000000020000000000000000000000000800000",
      "type": "0x2",
      "transactionHash": "0x0a3164dcbb628a0a1bf48394c8d6b667e85f4e079a64e8e69f1c70ed84ae45ca",
      "transactionIndex": "0x24",
      "blockHash": "0xbc2bf966ac007217c14b825c7b37dfef3b89ec29ee55cbccc43e49d060d03d0a",
      "blockNumber": "0x4311df",
      "gasUsed": "0xc6bb",
      "effectiveGasPrice": "0xf4247",
      "from": "0x1285a2214319eff512c5035933ac44e573738772",
      "to": "0xeeeeeee98622c19ea39ea8827ae22bbfc732671c",
      "contractAddress": null
    },
    {
      "status": "0x1",
      "cumulativeGasUsed": "0x50cd7e",
      "logs": [
        {
          "address": "0xeeeeeee98622c19ea39ea8827ae22bbfc732671c",
          "topics": [
            "0xddf252ad1be2c89b69c2b068fc378daa952ba7f163c4a11628f55a4df523b3ef",
            "0x0000000000000000000000001285a2214319eff512c5035933ac44e573738772",
            "0x0000000000000000000000005fbe74a283f7954f10aa04c2edf55578811aeb03"
          ],
          "data": "0x0000000000000000000000000000000000000000000000000429d069189e0000",
          "blockHash": "0xbc2bf966ac007217c14b825c7b37dfef3b89ec29ee55cbccc43e49d060d03d0a",
          "blockNumber": "0x4311df",
          "transactionHash": "0x20efa4fa5a342765bac7e9aef272df195152b3238f0c7fc5a2f5d9290afbe7d7",
          "transactionIndex": "0x25",
          "logIndex": "0x51",
          "removed": false
        },
        {
          "address": "0xee4ea8d358473f0fcebf0329feed95d56e8c04d7",
          "topics": [
            "0x635b5d234fe7abddfb29b6c8498780a3175c9002c537f20a3d1bf9d0e625b5fe",
            "0x0000000000000000000000000000000000000000000000000000000000000006",
            "0xf0118d8bf4d7c11c1eabf44d4bb3e53cf2c50cccb5c83570d8d8aaa709639325"
          ],
          "data": "0x00000000000000000000000000000000000000000000000000000000000000200000000000000000000000000000000000000000000000000000000000000006000000000000000000000000000000000000000000000000000000000000001400000000000000000000000000000000000000000000000000000000000000a00000000000000000000000000000000000000000000000000000000000000000000000000000000000000000000000000000000000000000185fbdf6028a3800000000000000000000000000000000000000000000000000000000000000040028f93604a9b541304d5357bf54a61db0dd6dd7233d1b8e41cfef61d6cdf8a5bf0000000000000000000000000000000000000000000000000000000000000000000000000000000000000000000000000000000000000000000000000000006000000000000000000000000000000000000000000000000000000000000000020000000000000000000000000000000000000000000000000000000000000003000000000000000000000000000000000000000000000000000000000000006000000000000000000000000000000000000000000000000000000000000003200000000000000000000000000000000000000000000000000000000000000100000000000000000000000000000000000000000000000000000000000000014000000000000000000000000000000000000000000000000000000000000001a00000000000000000000000000000000000000000000000000429d069189e000000000000000000000000000000000000000000000000000000000000000001e00000000000000000000000000000000000000000000000000429d069189e00000000000000000000000000000000000000000000000000000000000000000003000000000000000000000000000000000000000000000000000000000000024000000000000000000000000000000000000000000000000000000000000000141285a2214319eff512c5035933ac44e573738772000000000000000000000000000000000000000000000000000000000000000000000000000000000000002c756e696f6e31793375346d77333961646e67656e6c7a77716d36687a3630666c7a323567737832727175686100000000000000000000000000000000000000000000000000000000000000000000000000000000000000000000000000000014eeeeeee98622c19ea39ea8827ae22bbfc732671c0000000000000000000000000000000000000000000000000000000000000000000000000000000000000040756e696f6e316e6b6a787374396535666a336464386d7a6d34737664306d676e396d6d37633776736d387a6a70633975736d646a63613878707364657732767100000000000000000000000000000000000000000000000000000000000000c0000000000000000000000000000000000000000000000000000000000000004000000000000000000000000000000000000000000000000000000000000000a00000000000000000000000000000000000000000000000000000000000000040756e696f6e316e6b6a787374396535666a336464386d7a6d34737664306d676e396d6d37633776736d387a6a70633975736d646a6361387870736465773276710000000000000000000000000000000000000000000000000000000000000000",
          "blockHash": "0xbc2bf966ac007217c14b825c7b37dfef3b89ec29ee55cbccc43e49d060d03d0a",
          "blockNumber": "0x4311df",
          "transactionHash": "0x20efa4fa5a342765bac7e9aef272df195152b3238f0c7fc5a2f5d9290afbe7d7",
          "transactionIndex": "0x25",
          "logIndex": "0x52",
          "removed": false
        }
      ],
      "logsBloom": "0x00004080000000000000000000008004000000000000000000000000000000000000000000000000000000000000000000000200000400000000000200000000000000000020000000000008000000000100000000000000000000000000000000000000000000000000000000000000000000000000020000000010000000400000000400010000000000000000000000000000000000000000000000000000000000000000000000000000000000000000000000000000200000080000000000000002000000000000020000000000000400000000000000000000000000000000000000000000000000000000000020000000000000000000000000900000",
      "type": "0x2",
      "transactionHash": "0x20efa4fa5a342765bac7e9aef272df195152b3238f0c7fc5a2f5d9290afbe7d7",
      "transactionIndex": "0x25",
      "blockHash": "0xbc2bf966ac007217c14b825c7b37dfef3b89ec29ee55cbccc43e49d060d03d0a",
      "blockNumber": "0x4311df",
      "gasUsed": "0x1e38c",
      "effectiveGasPrice": "0xf4247",
      "from": "0x1285a2214319eff512c5035933ac44e573738772",
      "to": "0x5fbe74a283f7954f10aa04c2edf55578811aeb03",
      "contractAddress": null
    }
  ],
  "libraries": [],
  "pending": [],
  "returns": {},
  "timestamp": 1756072070,
  "chain": 17000,
  "commit": "43f40cf"
}