{
  "transactions": [
    {
      "hash": "0x15901db37d9aef1d768a6602a3d5fdabb64b42a5e8568bf5e71f89815d5d2a26",
      "transactionType": "CALL",
      "contractName": null,
      "contractAddress": "0xeeeeeee98622c19ea39ea8827ae22bbfc732671c",
      "function": "mint(address,uint256)",
      "arguments": [
        "0x1285a2214319Eff512C5035933ac44E573738772",
        "300000000000000000"
      ],
      "transaction": {
        "from": "0x1285a2214319eff512c5035933ac44e573738772",
        "to": "0xeeeeeee98622c19ea39ea8827ae22bbfc732671c",
        "gas": "0xeabc",
        "value": "0x0",
        "input": "0x40c10f190000000000000000000000001285a2214319eff512c5035933ac44e5737387720000000000000000000000000000000000000000000000000429d069189e0000",
        "nonce": "0x1f",
        "chainId": "0x4268"
      },
      "additionalContracts": [],
      "isFixedGasLimit": false
    },
    {
      "hash": "0x86cb7a41a0141c325ded5efe336185620db187b3e8eb399a3f5c21a00d3bc3e6",
      "transactionType": "CALL",
      "contractName": null,
      "contractAddress": "0xeeeeeee98622c19ea39ea8827ae22bbfc732671c",
      "function": "approve(address,uint256)",
      "arguments": [
        "0x5FbE74A283f7954f10AA04C2eDf55578811aeb03",
        "300000000000000000"
      ],
      "transaction": {
        "from": "0x1285a2214319eff512c5035933ac44e573738772",
        "to": "0xeeeeeee98622c19ea39ea8827ae22bbfc732671c",
        "gas": "0x122a4",
        "value": "0x0",
        "input": "0x095ea7b30000000000000000000000005fbe74a283f7954f10aa04c2edf55578811aeb030000000000000000000000000000000000000000000000000429d069189e0000",
        "nonce": "0x20",
        "chainId": "0x4268"
      },
      "additionalContracts": [],
      "isFixedGasLimit": false
    },
    {
      "hash": "0xc12a84bb49cedbcace64fd37c4f3a734d672ac303fe7b9af279fd9f2bc2e9679",
      "transactionType": "CALL",
      "contractName": null,
      "contractAddress": "0x5fbe74a283f7954f10aa04c2edf55578811aeb03",
      "function": "send(uint32,uint64,uint64,bytes32,(uint8,uint8,bytes))",
      "arguments": [
        "6",
        "0",
        "1756331184000000000",
        "0x099c46582cc60be534f8bcc7d5a78518d6896be3e819776ac1fbddd15e066c17",
        "(2, 3, 0x0000000000000000000000000000000000000000000000000000000000000100000000000000000000000000000000000000000000000000000000000000014000000000000000000000000000000000000000000000000000000000000001a00000000000000000000000000000000000000000000000000429d069189e000000000000000000000000000000000000000000000000000000000000000001e00000000000000000000000000000000000000000000000000429d069189e00000000000000000000000000000000000000000000000000000000000000000003000000000000000000000000000000000000000000000000000000000000024000000000000000000000000000000000000000000000000000000000000000141285a2214319eff512c5035933ac44e573738772000000000000000000000000000000000000000000000000000000000000000000000000000000000000002c756e696f6e31793375346d77333961646e67656e6c7a77716d36687a3630666c7a323567737832727175686100000000000000000000000000000000000000000000000000000000000000000000000000000000000000000000000000000014eeeeeee98622c19ea39ea8827ae22bbfc732671c0000000000000000000000000000000000000000000000000000000000000000000000000000000000000040756e696f6e316e6b6a787374396535666a336464386d7a6d34737664306d676e396d6d37633776736d387a6a70633975736d646a63613878707364657732767100000000000000000000000000000000000000000000000000000000000000a0000000000000000000000000000000000000000000000000000000000000004000000000000000000000000000000000000000000000000000000000000000800000000000000000000000000000000000000000000000000000000000000014eeeeeee98622c19ea39ea8827ae22bbfc732671c0000000000000000000000000000000000000000000000000000000000000000000000000000000000000000)"
      ],
      "transaction": {
        "from": "0x1285a2214319eff512c5035933ac44e573738772",
        "to": "0x5fbe74a283f7954f10aa04c2edf55578811aeb03",
        "gas": "0x2f2c0",
        "value": "0x0",
        "input": "0xff0d7c2f00000000000000000000000000000000000000000000000000000000000000060000000000000000000000000000000000000000000000000000000000000000000000000000000000000000000000000000000000000000185fbde80a42e000099c46582cc60be534f8bcc7d5a78518d6896be3e819776ac1fbddd15e066c1700000000000000000000000000000000000000000000000000000000000000a000000000000000000000000000000000000000000000000000000000000000020000000000000000000000000000000000000000000000000000000000000003000000000000000000000000000000000000000000000000000000000000006000000000000000000000000000000000000000000000000000000000000003000000000000000000000000000000000000000000000000000000000000000100000000000000000000000000000000000000000000000000000000000000014000000000000000000000000000000000000000000000000000000000000001a00000000000000000000000000000000000000000000000000429d069189e000000000000000000000000000000000000000000000000000000000000000001e00000000000000000000000000000000000000000000000000429d069189e00000000000000000000000000000000000000000000000000000000000000000003000000000000000000000000000000000000000000000000000000000000024000000000000000000000000000000000000000000000000000000000000000141285a2214319eff512c5035933ac44e573738772000000000000000000000000000000000000000000000000000000000000000000000000000000000000002c756e696f6e31793375346d77333961646e67656e6c7a77716d36687a3630666c7a323567737832727175686100000000000000000000000000000000000000000000000000000000000000000000000000000000000000000000000000000014eeeeeee98622c19ea39ea8827ae22bbfc732671c0000000000000000000000000000000000000000000000000000000000000000000000000000000000000040756e696f6e316e6b6a787374396535666a336464386d7a6d34737664306d676e396d6d37633776736d387a6a70633975736d646a63613878707364657732767100000000000000000000000000000000000000000000000000000000000000a0000000000000000000000000000000000000000000000000000000000000004000000000000000000000000000000000000000000000000000000000000000800000000000000000000000000000000000000000000000000000000000000014eeeeeee98622c19ea39ea8827ae22bbfc732671c0000000000000000000000000000000000000000000000000000000000000000000000000000000000000000",
        "nonce": "0x21",
        "chainId": "0x4268"
      },
      "additionalContracts": [],
      "isFixedGasLimit": false
    }
  ],
  "receipts": [
    {
      "status": "0x1",
      "cumulativeGasUsed": "0xd2a9f9",
      "logs": [
        {
          "address": "0xeeeeeee98622c19ea39ea8827ae22bbfc732671c",
          "topics": [
            "0xddf252ad1be2c89b69c2b068fc378daa952ba7f163c4a11628f55a4df523b3ef",
            "0x0000000000000000000000000000000000000000000000000000000000000000",
            "0x0000000000000000000000001285a2214319eff512c5035933ac44e573738772"
          ],
          "data": "0x0000000000000000000000000000000000000000000000000429d069189e0000",
          "blockHash": "0xb79153cd34ea375f2c93410d48666a0b439abc123bc862ea096a18f4a102f120",
          "blockNumber": "0x4311db",
          "transactionHash": "0x15901db37d9aef1d768a6602a3d5fdabb64b42a5e8568bf5e71f89815d5d2a26",
          "transactionIndex": "0x49",
          "logIndex": "0x93",
          "removed": false
        }
      ],
      "logsBloom": "0x00004080000000000000000000000000000000000000000000000000000000000000000000000000000000000000000000000000000000000000000000000000000000000000000000000008000000000000000000000000000000000000000000000000020000000000000000000800000000000000020000000010000000000000000000010000000000000000000000000000000000000000000000000000000000000000000000000000000000000000000000000000000000080000000000000002000000000000000000000000000000000000000000000000000020000000000000000000000000000000000000000000000000000000000000800000",
      "type": "0x2",
      "transactionHash": "0x15901db37d9aef1d768a6602a3d5fdabb64b42a5e8568bf5e71f89815d5d2a26",
      "transactionIndex": "0x49",
      "blockHash": "0xb79153cd34ea375f2c93410d48666a0b439abc123bc862ea096a18f4a102f120",
      "blockNumber": "0x4311db",
      "gasUsed": "0xa081",
      "effectiveGasPrice": "0xf4247",
      "from": "0x1285a2214319eff512c5035933ac44e573738772",
      "to": "0xeeeeeee98622c19ea39ea8827ae22bbfc732671c",
      "contractAddress": null
    },
    {
      "status": "0x1",
      "cumulativeGasUsed": "0xd370b4",
      "logs": [
        {
          "address": "0xeeeeeee98622c19ea39ea8827ae22bbfc732671c",
          "topics": [
            "0x8c5be1e5ebec7d5bd14f71427d1e84f3dd0314c0f7b2291e5b200ac8c7c3b925",
            "0x0000000000000000000000001285a2214319eff512c5035933ac44e573738772",
            "0x0000000000000000000000005fbe74a283f7954f10aa04c2edf55578811aeb03"
          ],
          "data": "0x0000000000000000000000000000000000000000000000000429d069189e0000",
          "blockHash": "0xb79153cd34ea375f2c93410d48666a0b439abc123bc862ea096a18f4a102f120",
          "blockNumber": "0x4311db",
          "transactionHash": "0x86cb7a41a0141c325ded5efe336185620db187b3e8eb399a3f5c21a00d3bc3e6",
          "transactionIndex": "0x4a",
          "logIndex": "0x94",
          "removed": false
        }
      ],
      "logsBloom": "0x00004080000000000000000000000004000000000000000000000000000000000000000000000000000000000000000000000000000000000000000000200000000000000000000000000000000000000000000000000000000000000000000000000000000000000000000000000000000000000000020000000000000000400000000000010000000000000000000000000000000000000000000000000000020000000000000000000000000000000000000000000000000000080000000000000000000000000000000000000000000000000000000000000000000000000010000000000000000000000000000020000000000000000000000000800000",
      "type": "0x2",
      "transactionHash": "0x86cb7a41a0141c325ded5efe336185620db187b3e8eb399a3f5c21a00d3bc3e6",
      "transactionIndex": "0x4a",
      "blockHash": "0xb79153cd34ea375f2c93410d48666a0b439abc123bc862ea096a18f4a102f120",
      "blockNumber": "0x4311db",
      "gasUsed": "0xc6bb",
      "effectiveGasPrice": "0xf4247",
      "from": "0x1285a2214319eff512c5035933ac44e573738772",
      "to": "0xeeeeeee98622c19ea39ea8827ae22bbfc732671c",
      "contractAddress": null
    },
    {
      "status": "0x1",
      "cumulativeGasUsed": "0xd59322",
      "logs": [
        {
          "address": "0xeeeeeee98622c19ea39ea8827ae22bbfc732671c",
          "topics": [
            "0xddf252ad1be2c89b69c2b068fc378daa952ba7f163c4a11628f55a4df523b3ef",
            "0x0000000000000000000000001285a2214319eff512c5035933ac44e573738772",
            "0x0000000000000000000000005fbe74a283f7954f10aa04c2edf55578811aeb03"
          ],
          "data": "0x0000000000000000000000000000000000000000000000000429d069189e0000",
          "blockHash": "0xb79153cd34ea375f2c93410d48666a0b439abc123bc862ea096a18f4a102f120",
          "blockNumber": "0x4311db",
          "transactionHash": "0xc12a84bb49cedbcace64fd37c4f3a734d672ac303fe7b9af279fd9f2bc2e9679",
          "transactionIndex": "0x4b",
          "logIndex": "0x95",
          "removed": false
        },
        {
          "address": "0xee4ea8d358473f0fcebf0329feed95d56e8c04d7",
          "topics": [
            "0x635b5d234fe7abddfb29b6c8498780a3175c9002c537f20a3d1bf9d0e625b5fe",
            "0x0000000000000000000000000000000000000000000000000000000000000006",
            "0x4d0abaf4e8c56a05db8ca7e0c4b887a7db8cd66bfc0830e084fbdfca4ac29971"
          ],
          "data": "0x00000000000000000000000000000000000000000000000000000000000000200000000000000000000000000000000000000000000000000000000000000006000000000000000000000000000000000000000000000000000000000000001400000000000000000000000000000000000000000000000000000000000000a00000000000000000000000000000000000000000000000000000000000000000000000000000000000000000000000000000000000000000185fbde80a42e00000000000000000000000000000000000000000000000000000000000000003e0a1cf1f918c68a20dd316415ab2a856cd38c439c9683819a7aa6eb48ebe0867830000000000000000000000000000000000000000000000000000000000000000000000000000000000000000000000000000000000000000000000000000006000000000000000000000000000000000000000000000000000000000000000020000000000000000000000000000000000000000000000000000000000000003000000000000000000000000000000000000000000000000000000000000006000000000000000000000000000000000000000000000000000000000000003000000000000000000000000000000000000000000000000000000000000000100000000000000000000000000000000000000000000000000000000000000014000000000000000000000000000000000000000000000000000000000000001a00000000000000000000000000000000000000000000000000429d069189e000000000000000000000000000000000000000000000000000000000000000001e00000000000000000000000000000000000000000000000000429d069189e00000000000000000000000000000000000000000000000000000000000000000003000000000000000000000000000000000000000000000000000000000000024000000000000000000000000000000000000000000000000000000000000000141285a2214319eff512c5035933ac44e573738772000000000000000000000000000000000000000000000000000000000000000000000000000000000000002c756e696f6e31793375346d77333961646e67656e6c7a77716d36687a3630666c7a323567737832727175686100000000000000000000000000000000000000000000000000000000000000000000000000000000000000000000000000000014eeeeeee98622c19ea39ea8827ae22bbfc732671c0000000000000000000000000000000000000000000000000000000000000000000000000000000000000040756e696f6e316e6b6a787374396535666a336464386d7a6d34737664306d676e396d6d37633776736d387a6a70633975736d646a63613878707364657732767100000000000000000000000000000000000000000000000000000000000000a0000000000000000000000000000000000000000000000000000000000000004000000000000000000000000000000000000000000000000000000000000000800000000000000000000000000000000000000000000000000000000000000014eeeeeee98622c19ea39ea8827ae22bbfc732671c0000000000000000000000000000000000000000000000000000000000000000000000000000000000000000",
          "blockHash": "0xb79153cd34ea375f2c93410d48666a0b439abc123bc862ea096a18f4a102f120",
          "blockNumber": "0x4311db",
          "transactionHash": "0xc12a84bb49cedbcace64fd37c4f3a734d672ac303fe7b9af279fd9f2bc2e9679",
          "transactionIndex": "0x4b",
          "logIndex": "0x96",
          "removed": false
        }
      ],
      "logsBloom": "0x00004080000000000000000000008004000000000000000000000000000000000000000000000000000000000000000000000000000400000000000200000000000000000020000000000008000000000100000000000000000000000000000000000000000000000000000000000008000000008000020000000010000000400000000400010000000000000000000000000000000000000000000000000000000000000000000000000000000000000000000000000000200000080000000000000002000000000000000000000000000400000000000000000000000000000000000000000020000000000000000020000000000000000000000000800000",
      "type": "0x2",
      "transactionHash": "0xc12a84bb49cedbcace64fd37c4f3a734d672ac303fe7b9af279fd9f2bc2e9679",
      "transactionIndex": "0x4b",
      "blockHash": "0xb79153cd34ea375f2c93410d48666a0b439abc123bc862ea096a18f4a102f120",
      "blockNumber": "0x4311db",
      "gasUsed": "0x2226e",
      "effectiveGasPrice": "0xf4247",
      "from": "0x1285a2214319eff512c5035933ac44e573738772",
      "to": "0x5fbe74a283f7954f10aa04c2edf55578811aeb03",
      "contractAddress": null
    }
  ],
  "libraries": [],
  "pending": [],
  "returns": {},
  "timestamp": 1756072022,
  "chain": 17000,
  "commit": "43f40cf"
}