{
  "transactions": [
    {
      "hash": "0x8547f62c6807f5ad0db55ffb3f2191860111d5930c5bf83b957e6db4ed3b7e51",
      "transactionType": "CALL",
      "contractName": null,
      "contractAddress": "0xeeeeeee98622c19ea39ea8827ae22bbfc732671c",
      "function": "mint(address,uint256)",
      "arguments": [
        "0x1285a2214319Eff512C5035933ac44E573738772",
        "1000000000000000000"
      ],
      "transaction": {
        "from": "0x1285a2214319eff512c5035933ac44e573738772",
        "to": "0xeeeeeee98622c19ea39ea8827ae22bbfc732671c",
        "gas": "0x139f4",
        "value": "0x0",
        "input": "0x40c10f190000000000000000000000001285a2214319eff512c5035933ac44e5737387720000000000000000000000000000000000000000000000000de0b6b3a7640000",
        "nonce": "0x1b",
        "chainId": "0x4268"
      },
      "additionalContracts": [],
      "isFixedGasLimit": false
    },
    {
      "hash": "0x78e43cf5b45645becc59529852e660ff545df559afed4af58c09765f352d1791",
      "transactionType": "CALL",
      "contractName": null,
      "contractAddress": "0xeeeeeee98622c19ea39ea8827ae22bbfc732671c",
      "function": "approve(address,uint256)",
      "arguments": [
        "0x5FbE74A283f7954f10AA04C2eDf55578811aeb03",
        "1000000000000000000"
      ],
      "transaction": {
        "from": "0x1285a2214319eff512c5035933ac44e573738772",
        "to": "0xeeeeeee98622c19ea39ea8827ae22bbfc732671c",
        "gas": "0x122a4",
        "value": "0x0",
        "input": "0x095ea7b30000000000000000000000005fbe74a283f7954f10aa04c2edf55578811aeb030000000000000000000000000000000000000000000000000de0b6b3a7640000",
        "nonce": "0x1c",
        "chainId": "0x4268"
      },
      "additionalContracts": [],
      "isFixedGasLimit": false
    },
    {
      "hash": "0x2116aeab1396235b09f1b8a548483a21fa0722ddf0315a4100e17977b9a7e5b2",
      "transactionType": "CALL",
      "contractName": null,
      "contractAddress": "0x5fbe74a283f7954f10aa04c2edf55578811aeb03",
      "function": "send(uint32,uint64,uint64,bytes32,(uint8,uint8,bytes))",
      "arguments": [
        "1",
        "0",
        "1756246260000000000",
        "0x24b499bbb105f449b998945368d48cbd8b06cc349c4abf88dd27fdc7cae0e578",
        "(2, 3, 0x0000000000000000000000000000000000000000000000000000000000000100000000000000000000000000000000000000000000000000000000000000014000000000000000000000000000000000000000000000000000000000000001800000000000000000000000000000000000000000000000000de0b6b3a764000000000000000000000000000000000000000000000000000000000000000001c00000000000000000000000000000000000000000000000000de0b6b3a76400000000000000000000000000000000000000000000000000000000000000000003000000000000000000000000000000000000000000000000000000000000020000000000000000000000000000000000000000000000000000000000000000141285a2214319eff512c5035933ac44e57373877200000000000000000000000000000000000000000000000000000000000000000000000000000000000000141285a2214319eff512c5035933ac44e5737387720000000000000000000000000000000000000000000000000000000000000000000000000000000000000014eeeeeee98622c19ea39ea8827ae22bbfc732671c0000000000000000000000000000000000000000000000000000000000000000000000000000000000000014eeeeeee98622c19ea39ea8827ae22bbfc732671c00000000000000000000000000000000000000000000000000000000000000000000000000000000000000a0000000000000000000000000000000000000000000000000000000000000004000000000000000000000000000000000000000000000000000000000000000800000000000000000000000000000000000000000000000000000000000000014eeeeeee98622c19ea39ea8827ae22bbfc732671c0000000000000000000000000000000000000000000000000000000000000000000000000000000000000000)"
      ],
      "transaction": {
        "from": "0x1285a2214319eff512c5035933ac44e573738772",
        "to": "0x5fbe74a283f7954f10aa04c2edf55578811aeb03",
        "gas": "0x29809",
        "value": "0x0",
        "input": "0xff0d7c2f00000000000000000000000000000000000000000000000000000000000000010000000000000000000000000000000000000000000000000000000000000000000000000000000000000000000000000000000000000000185f70ab2168880024b499bbb105f449b998945368d48cbd8b06cc349c4abf88dd27fdc7cae0e57800000000000000000000000000000000000000000000000000000000000000a000000000000000000000000000000000000000000000000000000000000000020000000000000000000000000000000000000000000000000000000000000003000000000000000000000000000000000000000000000000000000000000006000000000000000000000000000000000000000000000000000000000000002c00000000000000000000000000000000000000000000000000000000000000100000000000000000000000000000000000000000000000000000000000000014000000000000000000000000000000000000000000000000000000000000001800000000000000000000000000000000000000000000000000de0b6b3a764000000000000000000000000000000000000000000000000000000000000000001c00000000000000000000000000000000000000000000000000de0b6b3a76400000000000000000000000000000000000000000000000000000000000000000003000000000000000000000000000000000000000000000000000000000000020000000000000000000000000000000000000000000000000000000000000000141285a2214319eff512c5035933ac44e57373877200000000000000000000000000000000000000000000000000000000000000000000000000000000000000141285a2214319eff512c5035933ac44e5737387720000000000000000000000000000000000000000000000000000000000000000000000000000000000000014eeeeeee98622c19ea39ea8827ae22bbfc732671c0000000000000000000000000000000000000000000000000000000000000000000000000000000000000014eeeeeee98622c19ea39ea8827ae22bbfc732671c00000000000000000000000000000000000000000000000000000000000000000000000000000000000000a0000000000000000000000000000000000000000000000000000000000000004000000000000000000000000000000000000000000000000000000000000000800000000000000000000000000000000000000000000000000000000000000014eeeeeee98622c19ea39ea8827ae22bbfc732671c0000000000000000000000000000000000000000000000000000000000000000000000000000000000000000",
        "nonce": "0x1d",
        "chainId": "0x4268"
      },
      "additionalContracts": [],
      "isFixedGasLimit": false
    }
  ],
  "receipts": [
    {
      "status": "0x1",
      "cumulativeGasUsed": "0x1978398",
      "logs": [
        {
          "address": "0xeeeeeee98622c19ea39ea8827ae22bbfc732671c",
          "topics": [
            "0xddf252ad1be2c89b69c2b068fc378daa952ba7f163c4a11628f55a4df523b3ef",
            "0x0000000000000000000000000000000000000000000000000000000000000000",
            "0x0000000000000000000000001285a2214319eff512c5035933ac44e573738772"
          ],
          "data": "0x0000000000000000000000000000000000000000000000000de0b6b3a7640000",
          "blockHash": "0x463a300e99bd1f83736f61a8bfadbdb9dae2243f3dfeea705625d833b5d1caf3",
          "blockNumber": "0x42fd2c",
          "transactionHash": "0x8547f62c6807f5ad0db55ffb3f2191860111d5930c5bf83b957e6db4ed3b7e51",
          "transactionIndex": "0x45",
          "logIndex": "0xc6",
          "removed": false
        }
      ],
      "logsBloom": "0x00004080000000000000000000000000000000000000000000000000000000000000000000000000000000000000000000000000000000000000000000000000000000000000000000000008000000000000000000000000000000000000000000000000020000000000000000000800000000000000020000000010000000000000000000010000000000000000000000000000000000000000000000000000000000000000000000000000000000000000000000000000000000080000000000000002000000000000000000000000000000000000000000000000000020000000000000000000000000000000000000000000000000000000000000800000",
      "type": "0x2",
      "transactionHash": "0x8547f62c6807f5ad0db55ffb3f2191860111d5930c5bf83b957e6db4ed3b7e51",
      "transactionIndex": "0x45",
      "blockHash": "0x463a300e99bd1f83736f61a8bfadbdb9dae2243f3dfeea705625d833b5d1caf3",
      "blockNumber": "0x42fd2c",
      "gasUsed": "0xe34d",
      "effectiveGasPrice": "0xf4248",
      "from": "0x1285a2214319eff512c5035933ac44e573738772",
      "to": "0xeeeeeee98622c19ea39ea8827ae22bbfc732671c",
      "contractAddress": null
    },
    {
      "status": "0x1",
      "cumulativeGasUsed": "0x1984a53",
      "logs": [
        {
          "address": "0xeeeeeee98622c19ea39ea8827ae22bbfc732671c",
          "topics": [
            "0x8c5be1e5ebec7d5bd14f71427d1e84f3dd0314c0f7b2291e5b200ac8c7c3b925",
            "0x0000000000000000000000001285a2214319eff512c5035933ac44e573738772",
            "0x0000000000000000000000005fbe74a283f7954f10aa04c2edf55578811aeb03"
          ],
          "data": "0x0000000000000000000000000000000000000000000000000de0b6b3a7640000",
          "blockHash": "0x463a300e99bd1f83736f61a8bfadbdb9dae2243f3dfeea705625d833b5d1caf3",
          "blockNumber": "0x42fd2c",
          "transactionHash": "0x78e43cf5b45645becc59529852e660ff545df559afed4af58c09765f352d1791",
          "transactionIndex": "0x46",
          "logIndex": "0xc7",
          "removed": false
        }
      ],
      "logsBloom": "0x00004080000000000000000000000004000000000000000000000000000000000000000000000000000000000000000000000000000000000000000000200000000000000000000000000000000000000000000000000000000000000000000000000000000000000000000000000000000000000000020000000000000000400000000000010000000000000000000000000000000000000000000000000000020000000000000000000000000000000000000000000000000000080000000000000000000000000000000000000000000000000000000000000000000000000010000000000000000000000000000020000000000000000000000000800000",
      "type": "0x2",
      "transactionHash": "0x78e43cf5b45645becc59529852e660ff545df559afed4af58c09765f352d1791",
      "transactionIndex": "0x46",
      "blockHash": "0x463a300e99bd1f83736f61a8bfadbdb9dae2243f3dfeea705625d833b5d1caf3",
      "blockNumber": "0x42fd2c",
      "gasUsed": "0xc6bb",
      "effectiveGasPrice": "0xf4248",
      "from": "0x1285a2214319eff512c5035933ac44e573738772",
      "to": "0xeeeeeee98622c19ea39ea8827ae22bbfc732671c",
      "contractAddress": null
    },
    {
      "status": "0x1",
      "cumulativeGasUsed": "0x19a105e",
      "logs": [
        {
          "address": "0xeeeeeee98622c19ea39ea8827ae22bbfc732671c",
          "topics": [
            "0xddf252ad1be2c89b69c2b068fc378daa952ba7f163c4a11628f55a4df523b3ef",
            "0x0000000000000000000000001285a2214319eff512c5035933ac44e573738772",
            "0x0000000000000000000000005fbe74a283f7954f10aa04c2edf55578811aeb03"
          ],
          "data": "0x0000000000000000000000000000000000000000000000000de0b6b3a7640000",
          "blockHash": "0x463a300e99bd1f83736f61a8bfadbdb9dae2243f3dfeea705625d833b5d1caf3",
          "blockNumber": "0x42fd2c",
          "transactionHash": "0x2116aeab1396235b09f1b8a548483a21fa0722ddf0315a4100e17977b9a7e5b2",
          "transactionIndex": "0x47",
          "logIndex": "0xc8",
          "removed": false
        },
        {
          "address": "0xee4ea8d358473f0fcebf0329feed95d56e8c04d7",
          "topics": [
            "0x635b5d234fe7abddfb29b6c8498780a3175c9002c537f20a3d1bf9d0e625b5fe",
            "0x0000000000000000000000000000000000000000000000000000000000000001",
            "0x8ca4e1b0881543e61ce9fd5d465aa03593c05cf394b380a302534a2223dfda92"
          ],
          "data": "0x00000000000000000000000000000000000000000000000000000000000000200000000000000000000000000000000000000000000000000000000000000001000000000000000000000000000000000000000000000000000000000000000600000000000000000000000000000000000000000000000000000000000000a00000000000000000000000000000000000000000000000000000000000000000000000000000000000000000000000000000000000000000185f70ab2168880000000000000000000000000000000000000000000000000000000000000003a044b07d0ab02fbbe0bee23c712838312e6dd5952769d4618503824d0535da5b650000000000000000000000000000000000000000000000000000000000000000000000000000000000000000000000000000000000000000000000000000006000000000000000000000000000000000000000000000000000000000000000020000000000000000000000000000000000000000000000000000000000000003000000000000000000000000000000000000000000000000000000000000006000000000000000000000000000000000000000000000000000000000000002c00000000000000000000000000000000000000000000000000000000000000100000000000000000000000000000000000000000000000000000000000000014000000000000000000000000000000000000000000000000000000000000001800000000000000000000000000000000000000000000000000de0b6b3a764000000000000000000000000000000000000000000000000000000000000000001c00000000000000000000000000000000000000000000000000de0b6b3a76400000000000000000000000000000000000000000000000000000000000000000003000000000000000000000000000000000000000000000000000000000000020000000000000000000000000000000000000000000000000000000000000000141285a2214319eff512c5035933ac44e57373877200000000000000000000000000000000000000000000000000000000000000000000000000000000000000141285a2214319eff512c5035933ac44e5737387720000000000000000000000000000000000000000000000000000000000000000000000000000000000000014eeeeeee98622c19ea39ea8827ae22bbfc732671c0000000000000000000000000000000000000000000000000000000000000000000000000000000000000014eeeeeee98622c19ea39ea8827ae22bbfc732671c00000000000000000000000000000000000000000000000000000000000000000000000000000000000000a0000000000000000000000000000000000000000000000000000000000000004000000000000000000000000000000000000000000000000000000000000000800000000000000000000000000000000000000000000000000000000000000014eeeeeee98622c19ea39ea8827ae22bbfc732671c0000000000000000000000000000000000000000000000000000000000000000000000000000000000000000",
          "blockHash": "0x463a300e99bd1f83736f61a8bfadbdb9dae2243f3dfeea705625d833b5d1caf3",
          "blockNumber": "0x42fd2c",
          "transactionHash": "0x2116aeab1396235b09f1b8a548483a21fa0722ddf0315a4100e17977b9a7e5b2",
          "transactionIndex": "0x47",
          "logIndex": "0xc9",
          "removed": false
        }
      ],
      "logsBloom": "0x00004080000000000000000000008004000000000000004000000000000000000000040000000000000000020000000000000000000000000000000200040000000000000020000000000008000000000100000000040000000000000000000000000000000000000000000000000000000000000000020000000010000000400000000000010000000000000000000000000000000000000000000000000000000000000000000000000000000000000000000000000000200000080000000000000002000000000000000000000000000400000000000000000000000040000000000000000000000000000000000020000000000000000000000000800000",
      "type": "0x2",
      "transactionHash": "0x2116aeab1396235b09f1b8a548483a21fa0722ddf0315a4100e17977b9a7e5b2",
      "transactionIndex": "0x47",
      "blockHash": "0x463a300e99bd1f83736f61a8bfadbdb9dae2243f3dfeea705625d833b5d1caf3",
      "blockNumber": "0x42fd2c",
      "gasUsed": "0x1c60b",
      "effectiveGasPrice": "0xf4248",
      "from": "0x1285a2214319eff512c5035933ac44e573738772",
      "to": "0x5fbe74a283f7954f10aa04c2edf55578811aeb03",
      "contractAddress": null
    }
  ],
  "libraries": [],
  "pending": [],
  "returns": {},
  "timestamp": 1755987112,
  "chain": 17000,
  "commit": "07cb2ae"
}